:100000000C9463000C948B000C948B000C948B006C
:100010000C948B000C948B000C948B000C948B0034
:100020000C948B000C948B000C948B000C948B0024
:100030000C948B000C948B000C948B000C948B0014
:100040000C949C060C948B000C940C070C94E60604
:100050000C948B000C948B000C948B000C948B00F4
:100060000C943E070C948B00000000002400270035
:100070002A0000000000250028002B0000000000DE
:1000800023002600290004040404040404040202DA
:100090000202020203030303030301020408102007
:1000A0004080010204081020010204081020000012
:1000B0000008000201000003040700000000000027
:1000C00000008008980D11241FBECFEFD8E0DEBFDE
:1000D000CDBF25E0A2E7B3E001C01D92A936B2076B
:1000E000E1F713E0A0E0B1E0E8ECF2E202C0059035
:1000F0000D92A237B107D9F710E0C2E6D0E004C0F4
:100100002197FE010E94450FC136D107C9F70E9411
:10011000E5080C9457110C940000833081F028F40A
:10012000813099F08230A9F008958730A9F08830A5
:10013000C9F08430B1F4809180008F7D03C080913C
:1001400080008F7780938000089584B58F7784BD79
:10015000089584B58F7DFBCF8091B0008F77809319
:10016000B00008958091B0008F7DF9CFCF93DF93D9
:10017000282F30E0F901E255FF4F8491F901E6564E
:10018000FF4FD491F901EA57FF4FC491CC23A1F05E
:1001900081110E948D00EC2FF0E0EE0FFF1FE4585C
:1001A000FF4FA591B491EC91ED2381E090E009F42B
:1001B00080E0DF91CF91089580E090E0FACF1F9327
:1001C000CF93DF93282F30E0F901E255FF4F849160
:1001D000F901E656FF4FD491F901EA57FF4FC49158
:1001E000CC23A9F0162F81110E948D00EC2FF0E096
:1001F000EE0FFF1FEE58FF4FA591B4918FB7F89403
:10020000EC91111108C0D095DE23DC938FBFDF91F4
:10021000CF911F910895DE2BF8CFCF93DF9390E01D
:10022000FC01E656FF4F24918A579F4FFC018491B1
:100230008823C9F090E0880F991FFC01E859FF4F0F
:10024000A591B491FC01EE58FF4FC591D491611175
:100250000DC09FB7F8948C91209582238C93888150
:10026000282328839FBFDF91CF910895623051F4F6
:100270009FB7F8943C91822F809583238C93E881DB
:100280002E2BEFCF8FB7F894EC912E2B2C938FBFA2
:10029000EACF3FB7F89480914E0490914F04A0911B
:1002A0005004B091510426B5A89B05C02F3F19F00A
:1002B0000196A11DB11D3FBFBA2FA92F982F8827E6
:1002C000BC01CD01620F711D811D911D42E0660FC1
:1002D000771F881F991F4A95D1F708958F929F9293
:1002E000AF92BF92CF92DF92EF92FF924B015C01EF
:1002F0000E9449016B017C010E9449016C197D0932
:100300008E099F09683E734081059105A8F321E09D
:10031000821A9108A108B10888EEC80E83E0D81EA1
:10032000E11CF11C81149104A104B10429F7FF9090
:10033000EF90DF90CF90BF90AF909F908F900895F7
:10034000089508950895AF92BF92CF92DF92EF92F1
:10035000FF920F931F93CF93DF936C017B018B016F
:10036000040F151FEB015E01AE18BF08C017D107BF
:1003700059F06991D601ED91FC910190F081E02D49
:10038000C6010995892B79F7C501DF91CF911F919E
:100390000F91FF90EF90DF90CF90BF90AF900895B6
:1003A000FC01538D448D252F30E0842F90E0821B7B
:1003B000930B541710F0CF96089501970895FC0100
:1003C000918D828D981761F0A28DAE0FBF2FB11D58
:1003D0005D968C91928D9F5F9F73928F90E00895B0
:1003E0008FEF9FEF0895FC01918D828D981731F06A
:1003F000828DE80FF11D858D90E008958FEF9FEFBE
:100400000895FC01918D228D892F90E0805C9F4F93
:10041000821B91098F739927089582E594E00E94C9
:10042000010221E0892B09F420E0822F089580E069
:1004300090E0892B29F00E940D0281110C9400009C
:100440000895FC01A48DA80FB92FB11DA35ABF4F69
:100450002C91848D90E001968F739927848FA689C3
:10046000B7892C93A089B1898C91837080648C9317
:10047000938D848D981306C00288F389E02D8081C6
:100480008F7D80830895EF92FF920F931F93CF93F8
:10049000DF93EC0181E0888F9B8D8C8D98131AC0BF
:1004A000E889F989808185FF15C09FB7F894EE89A6
:1004B000FF896083E889F989808183708064808303
:1004C0009FBF81E090E0DF91CF911F910F91FF904E
:1004D000EF900895F62E0B8D10E00F5F1F4F0F73F6
:1004E0001127E02E8C8D8E110CC00FB607FCFACFB1
:1004F000E889F989808185FFF5CFCE010E9421022C
:10050000F1CFEB8DEC0FFD2FF11DE35AFF4FF08281
:100510009FB7F8940B8FEA89FB8980818062CFCFE7
:10052000CF93DF93EC01888D8823B9F0AA89BB892A
:10053000E889F9898C9185FD03C0808186FD0DC015
:100540000FB607FCF7CF8C9185FFF2CF808185FF36
:10055000EDCFCE010E942102E9CFDF91CF91089526
:100560000F931F93CF93DF93EC0188810E94B60015
:100570002FB7F89440914A0450914B0460914C0479
:1005800070914D042FBF288939892817390731F018
:100590004A8B5B8B6C8B7D8B998B888B0A891B8933
:1005A0002C893D89401B510B620B730B0A811B8107
:1005B0002C813D81401751076207730730F02E856B
:1005C0003F853D872C879F878E872C853D858E852F
:1005D0009F852817390781F04A855B854230510590
:1005E00081F48E819F81A885B9850196A11DB11DD9
:1005F0008E839F83A887B987DF91CF911F910F9139
:1006000008954115510531F421303105A9F7892BA1
:1006100041F3F2CF4130510579F7232B69F7019768
:1006200059F7DFCF2091DA03260F3327331F21320A
:100630003105ECF42091FE03FC0190E080E02430D1
:1006400069F082E00895A091DA032191AC0146544B
:100650005C4FA40FB52FB11D2C930196861798F30C
:100660008091DA03680F6093DA0380E0089581E0F7
:1006700008951092FE0381E0809300041092FF031E
:1006800061E082E10E94DF0061E083E10E94DF001F
:10069000E9EBF0E080818E7F808380818D7F808395
:1006A00088E48093B80085E48093BC000895CF93DC
:1006B000DF9391E09093B9038823B9F0C091B8001B
:1006C000D091BA008091BC008A7B8093BC0060E02E
:1006D00082E10E94DF0060E083E10E94DF000E946F
:1006E0003903D093BA00C093B800DF91CF91089539
:1006F0000895E0912B0480912A04E81730F4F0E08B
:10070000EC56FC4F808190E008958FEF9FEF0895A5
:1007100090912B0480912A042FEF3FEF981748F413
:10072000E92FF0E0EC56FC4F208130E09F5F909382
:100730002B04C901089580912A0490912B04891BF0
:10074000990B0895CF92DF92EF92FF920F931F9330
:10075000CF93DF937C01CB018A0120919303222365
:1007600089F0EB016B01C40ED51ECC15DD0569F0D7
:100770006991D701ED91FC910190F081E02DC701C5
:100780000995F3CF642F0E941203C801DF91CF9126
:100790001F910F91FF90EF90DF90CF900895CF932E
:1007A000DF931F92CDB7DEB7698320919303222395
:1007B000F9F020912804203258F021E030E0FC01CB
:1007C0003383228390E080E00F90DF91CF910895F2
:1007D00080912904E82FF0E0ED58FC4F9981908337
:1007E0008F5F809329048093280481E090E0ECCF10
:1007F00061E0CE0101960E941203F7CFCF92DF9203
:10080000EF92FF920F931F93CF93DF93FC01C4816C
:1008100021E020939303C093720310922904109255
:1008200028048385682B8FEE94E00E94CF03D0913B
:100830002804D13208F092C00E9449016B017C016A
:100840008091FE03811165C082E08093FE0381E008
:10085000809300048FEF8093FD0310922204D093C5
:100860002104A3E7B3E0E1E0F4E080E0D81385C021
:100870001092230480912304CC0FC82BC09323042F
:100880008091FF03813009F07CC01092FF030E9429
:1008900049016B017C01809123048093BB0080910E
:1008A000B5039091B603A091B703B091B803892B1B
:1008B0008A2B8B2B99F00E9449010091B50310916E
:1008C000B6032091B7033091B8036C197D098E09E6
:1008D0009F090617170728073907E0F18091BC0028
:1008E00083FDD9CF85EC8093BC000E9449016B0148
:1008F0007C018091FE03823009F445C08091FD03A4
:100900008F3F61F18091FD03803241F18091FD03C1
:1009100025C08091B5039091B603A091B703B09123
:10092000B803892B8A2B8B2B09F48ACF0E944901AB
:100930000091B5031091B6032091B7033091B8032D
:100940006C197D098E099F090617170728073907B3
:1009500008F076CF8091B4030E94570310922904C7
:100960001092280410929303DF91CF911F910F9161
:10097000FF90EF90DF90CF9008959D9191938F5FBE
:1009800075CF85EEB0CF8091B5039091B603A0915D
:10099000B703B091B803892B8A2B8B2B09F4A9CF0D
:1009A0000E9449010091B5031091B6032091B7034D
:1009B0003091B8036C197D098E099F090617170736
:1009C0002807390708F095CFC5CF90E080E008955B
:1009D0000F931F93CF938C01C62F0E94FE036C2FA1
:1009E0006460C8010E94FE036C2F6B7FC8010E94E7
:1009F000FE0383EC90E00197F1F7CF911F910F91E7
:100A000008950F931F93CF93DF938C01D62FC42F9C
:100A1000607F642B0E94E80480E1D89FB00111241C
:100A20006C2BC801DF91CF911F910F910C94E804BA
:100A300041E00E94010581E090E00895FC01808181
:100A40009181009711F00C94E70F0895CF93DF93F5
:100A5000FC0101900020E9F73197AF01481B590BC9
:100A6000BC0182E594E00E94A301EC0142E050E069
:100A700066E371E082E594E00E94A3018C0F9D1F64
:100A8000DF91CF910895CF93DF932091FF043091B0
:100A90000005232B89F0FC01C091FB04D091FC04DC
:100AA00060817181CE010E943D11009729F08C1B5D
:100AB0009D0BDF91CF9108958FEF9FEFFACF0F93AA
:100AC0001F93CF93DF938C01EB01FC018081918117
:100AD0000097E1F06881798161157105A9F0428183
:100AE00053812C813D814217530770F00E943611CB
:100AF0008C819D81F801958384831D821C82DF9106
:100B0000CF911F910F9108950E94E70F88819981DD
:100B1000F801918380838A819B81938382838C8176
:100B20009D8195838483198218821B821A82E5CF66
:100B3000FC0180819181009711F00C949C0D60E084
:100B400070E0CB0108950F931F93CF93DF93EC01D7
:100B500088819981009759F02A813B8126173707B0
:100B600030F081E0DF91CF911F910F9108958B01BB
:100B70006F5F7F4F0E947010009759F099838883B0
:100B80001B830A832C813D81232B59F7FC011082A2
:100B9000E8CF80E0E7CFEF92FF920F931F93CF93C0
:100BA000DF93EC017B018A01BA010E94A305288131
:100BB0003981811114C02115310519F0C9010E9434
:100BC000E70F198218821D821C821B821A82CE01B5
:100BD000DF91CF911F910F91FF90EF9008951D83AA
:100BE0000C83B701C9010E943611F1CFFC011182BB
:100BF00010821382128215821482FB010190002060
:100C0000E9F73197AF01461B570B0C94CB05CF92F8
:100C1000DF92EF92FF920F931F93CF93DF93EC013C
:100C20006B017A014617570720F48D2D6A01E62ED5
:100C3000F82E68E371E0CE010E94F6050091FF04F2
:100C400010910005C016D10640F5E016F10608F433
:100C50008701E091FB04F091FC04E00FF11FF080AC
:100C600010826091FB047091FC046C0D7D1D611578
:100C70007105E9F0FB0101900020E9F73197AF0120
:100C8000461B570BCE010E94CB058091FB0490912F
:100C9000FC04080F191FF801F082CE01DF91CF91FB
:100CA0001F910F91FF90EF90DF90CF900895888172
:100CB0009981009711F00E94E70F198218821D8216
:100CC0001C821B821A82E1CF85ED8093BC0080914B
:100CD000B5039091B603A091B703B091B8030796FE
:100CE000A11DB11D23E0B695A795979587952A95E7
:100CF000D1F72091BC0024FD03C01092FE0308959B
:100D00004091B5035091B6036091B7037091B80359
:100D1000452B462B472B69F30097A105B10541F000
:100D20002AE22A95F1F700C00197A109B109E1CFA4
:100D30008091B4030C9457031F920F920FB60F9239
:100D400011242F933F938F939F93AF93BF938091E1
:100D50004A0490914B04A0914C04B0914D04309101
:100D6000490423E0230F2D3758F50196A11DB11D2D
:100D70002093490480934A0490934B04A0934C041D
:100D8000B0934D0480914E0490914F04A091500473
:100D9000B09151040196A11DB11D80934E04909312
:100DA0004F04A0935004B0935104BF91AF919F9111
:100DB0008F913F912F910F900FBE0F901F9018951C
:100DC00026E8230F0296A11DB11DD2CF1F920F92CC
:100DD0000FB60F9211242F933F934F935F936F930E
:100DE0007F938F939F93AF93BF93EF93FF9382E58E
:100DF00094E00E942102FF91EF91BF91AF919F91EA
:100E00008F917F916F915F914F913F912F910F90B3
:100E10000FBE0F901F9018951F920F920FB60F9252
:100E200011242F938F939F93EF93FF93E09162048C
:100E3000F09163048081E0916804F091690482FD7F
:100E40001BC0908180916B048F5F8F7320916C0425
:100E5000821741F0E0916B04F0E0EE5AFB4F958F62
:100E600080936B04FF91EF919F918F912F910F9041
:100E70000FBE0F901F9018958081F4CF1F920F9294
:100E80000FB60F9211242F933F934F935F936F935D
:100E90007F938F939F93AF93BF93EF93FF93809133
:100EA000B900887F803609F44AC0F0F5883209F429
:100EB000A7C018F5803109F49BC0B8F4882309F461
:100EC000F9C0883009F494C0FF91EF91BF91AF91C0
:100ED0009F918F917F916F915F914F913F912F9152
:100EE0000F900FBE0F901F901895883109F488C09D
:100EF000803251F78093FD0314C0803409F49DC003
:100F000040F48033B9F38833F9F68093FD0385EC20
:100F1000B0C0803509F485C0883509F496C088349E
:100F200099F60E946406D0CF883909F48CC038F550
:100F3000883729F050F4883611F0803729F683E09D
:100F40008093FE031092FC0357C0883809F47BC0DD
:100F5000803919F0803809F0B7CF8091FC038032D6
:100F600008F071C0E091FC0381E08E0F8093FC03D8
:100F70008091BB00F0E0E452FC4F80833DC0803B99
:100F800039F0E0F4803A09F479C0883A09F09CCF4E
:100F900084E08093FE031092DB031092DA03E09169
:100FA0002604F091270409958091DA0381110FC07E
:100FB00081E08093DA031092BA0309C0803C09F4FF
:100FC000A6CF883C09F4A3CF883B09F07DCFE09100
:100FD000DB0381E08E0F8093DB03F0E0E654FC4FEF
:100FE00080818093BB009091DB038091DA0329C05C
:100FF000809123048093BB0085EC8093BC0064CF78
:101000009091220480912104981758F5E0912204D0
:1010100081E08E0F80932204F0E0EF5FFB4F808130
:10102000E9CFE091220481E08E0F80932204809129
:10103000BB00F0E0EF5FFB4F808390912204809132
:1010400021049817C8F285E8D8CFE091220481E006
:101050008E0F809322048091BB00F0E0EF5FFB4F86
:1010600080838091000481115CCF81E08093FF0335
:1010700084EA8093BC001092FE0326CF85EC809317
:10108000BC001092FE038091FC03803230F4E091AA
:10109000FC03F0E0E452FC4F10826091FC0370E02E
:1010A000E0912404F09125048CED93E009951092D1
:1010B000FC030ACF1092FD0334CFCF93DF93EC01F2
:1010C000862F688379831A821B821C821D821E826E
:1010D0001F82188619861B861A8662E00E940D01FF
:1010E00088810E94B6009D878C879F878E87998B09
:1010F000888B1A8A1B8A1C8A1D8ADF91CF910895DA
:10110000E2E5F4E01382128288EE93E0A0E0B0E022
:1011100084839583A683B7832AE031E031832083DB
:1011200025EC30E03587248724EC30E037872687AC
:1011300020EC30E0318B208B21EC30E0338B228BA4
:1011400022EC30E0358B248B26EC30E0378B268B7D
:10115000118E128E138E148EEFEEF4E01382128233
:1011600084839583A683B7838CE191E09183808308
:10117000E9E5F5E0138212828EE291E091838083AB
:1011800087E2848380E1818782E08287138669E039
:1011900070E083E495E00E945D086AE070E08DE213
:1011A00095E00E945D086BE070E087E195E00E94A9
:1011B0005D086EE070E081E095E00E945D0868E304
:1011C00071E08BEF94E00C94F605CF93DF93CDB7ED
:1011D000DEB76E970FB6F894DEBF0FBECDBF789422
:1011E00084B5826084BD84B5816084BD85B582602C
:1011F00085BD85B5816085BD80916E0081608093DD
:101200006E00109281008091810082608093810045
:101210008091810081608093810080918000816055
:10122000809380008091B10084608093B1008091B0
:10123000B00081608093B00080917A0084608093D8
:101240007A0080917A00826080937A0080917A009F
:10125000816080937A0080917A00806880937A0020
:101260001092C100E0916204F091630482E08083F7
:10127000E0915E04F0915F041082E0916004F091CF
:1012800061048FEC808310926A04E0916604F0910F
:10129000670486E08083E0916404F09165048081B6
:1012A00080618083E0916404F091650480818860AE
:1012B0008083E0916404F09165048081806880837C
:1012C000E0916404F091650480818F7D80831092A9
:1012D0002B0410922A0410922904109228040E94D0
:1012E000390380EA91E0909327048093260481EAF1
:1012F00091E0909325048093240410925E058091E0
:101300006305823018F098E090935E058093610544
:1013100062E370E080E090E00E946E0160916405FD
:1013200089E595E00E94FE0368EE73E080E090E0BE
:101330000E946E0160E389E595E00E94E8040BE4F9
:1013400016E4C8010197F1F760E389E595E00E9492
:10135000E804C8010197F1F760E389E595E00E9490
:10136000E80483E592E00197F1F760E289E595E012
:101370000E94E80460915E05606240E089E595E0C6
:101380000E94010584E080935F0540E06CE089E500
:1013900095E00E94010540E061E089E595E00E944A
:1013A00001050BE31FE1C8010197F1F782E080938B
:1013B000600540E066E089E595E00E94010540E0B7
:1013C00062E089E595E00E940105C8010197F1F707
:1013D00088E08093640560E089E595E00E94FE0363
:1013E00061E088E00E940D0161E082E00E940D0151
:1013F00061E085E00E940D0161E083E00E940D0143
:1014000061E086E00E940D0161E084E00E940D0130
:1014100061E087E00E940D0161E08CE00E940D0117
:1014200061E08DE00E940D0160E088E00E94DF0035
:1014300082E390E0A0E0B0E08093450590934605FC
:10144000A0934705B093480580932F0590933005EE
:10145000A0933105B09332058093190590931A0536
:10146000A0931B05B0931C0580930305909304057E
:10147000A0930505B09306059BE9492E9FE0592EE0
:101480000BED1EE22BE3622E2FE1722E80E0282E60
:1014900080E0382E83E495E00E94B0028DE295E072
:1014A0000E94B00287E195E00E94B00281E095E0E1
:1014B0000E94B00282E594E00E940102181619060B
:1014C00064F582E594E00E94DF01809348048A304D
:1014D00021F189831A82E090FF04F09000058FEFDC
:1014E000E81AF80AB7018BEF94E00E94A30588235D
:1014F00009F32091FB043091FC048091FF0490914A
:101500000005BE016F5F7F4F820F931F0E9436114F
:10151000F0920005E092FF04CDCF809148048A301C
:1015200009F0FAC068E371E0CE0149960E94F60521
:1015300068E371E0CE0143960E94F60568E371E02E
:10154000CE010D960E94F60568E371E0CE01079684
:101550000E94F60569E371E0CE0101960E94F6054E
:10156000CE0101960E944305C82E80932F04CE0120
:1015700001960E941E056BE371E0CE0101960E9468
:10158000F605CE0101960E944305E82E80932E04B5
:10159000CE0101960E941E056DE371E0CE01019619
:1015A0000E94F605CE0101960E944305F82E809315
:1015B0002D04CE0101960E941E0562ED71E0CE0160
:1015C00001960E94F605CE0101960E944305D82E91
:1015D00080932C04CE0101960E941E05C7FC1DC0FD
:1015E0004C2D0C2C000C550B70E060E0CE010196E8
:1015F0000E940706BE016F5F7F4FCE0149960E9491
:101600005F05CE0101960E941E05CE0149960E94FB
:1016100098057093350460933404E7FC20C06C2D6A
:10162000CC0C770B6F5F7F4F4E2D0E2C000C550BA3
:10163000CE0101960E940706BE016F5F7F4FCE016B
:1016400043960E945F05CE0101960E941E05CE01C1
:1016500043960E94980570933B0460933A04F7FC0C
:1016600020C06E2DEE0C770B6F5F7F4F4F2D0F2C30
:10167000000C550BCE0101960E940706BE016F5F5C
:101680007F4FCE010D960E945F05CE0101960E940C
:101690001E05CE010D960E9498057093410460933B
:1016A0004004D7FC1FC04D2DDD0C550B6F2DFF0CDA
:1016B000770B6F5F7F4FCE0101960E940706BE0138
:1016C0006F5F7F4FCE0107960E945F05CE010196A6
:1016D0000E941E05CE0107960E949805709347044C
:1016E00060934604CE0107960E941E05CE010D961A
:1016F0000E941E05CE0143960E941E05CE0149960A
:101700000E941E051092480450E040E068E371E03A
:101710008BEF94E00E94CB05C0903404D090350448
:101720008091320490913304C816D90609F440C060
:10173000B601681B790B072E000C880B990B0E94D1
:10174000DA0D26E636E646E65DE30E949D0E0E942F
:101750000F0F7B01709331046093300461E01E141D
:101760001F040CF460E085E00E94DF00B12CA12C86
:10177000882499248E189F08C701F7FCC401A81675
:10178000B90694F461E082E00E94DF00C201019793
:10179000F1F760E082E00E94DF00C2010197F1F7FB
:1017A0008FEFA81AB80AE8CFD0923304C09232045F
:1017B000C0903A04D0903B04809138049091390451
:1017C000C816D90609F440C0B601681B790B072E6C
:1017D000000C880B990B0E94DA0D2AE939E949E1DE
:1017E0005DE30E949D0E0E940F0F7B0170933704F2
:1017F0006093360461E01E141F040CF060E086E084
:101800000E94DF00B12CA12C882499248E189F08F7
:10181000C701F7FCC401A816B90694F461E083E09F
:101820000E94DF00C8010197F1F760E083E00E94A9
:10183000DF00C8010197F1F78FEFA81AB80AE8CFC7
:10184000D0923904C0923804C0904004D090410432
:1018500080913E0490913F04C816D90609F440C017
:10186000B601681B790B072E000C880B990B0E94A0
:10187000DA0D2DEC3CEC4CEC5CE30E949D0E0E94DA
:101880000F0F7B0170933D0460933C0461E01E14D4
:101890001F040CF460E087E00E94DF00B12CA12C53
:1018A000882499248E189F08C701F7FCC401A81644
:1018B000B90694F461E084E00E94DF00C80101975A
:1018C000F1F760E084E00E94DF00C8010197F1F7C2
:1018D0008FEFA81AB80AE8CFD0923F04C0923E0416
:1018E000C0904604D09047048091440490914504F0
:1018F000C816D90609F440C0B601681B790B072E3B
:10190000000C880B990B0E94DA0D2CEE31E548E3B0
:101910005DE30E949D0E0E940F0F7B0170934304B4
:101920006093420461E01E141F040CF460E08DE03B
:101930000E94DF00B12CA12C882499248E189F08C6
:10194000C701F7FCC401A816B90694F461E08CE065
:101950000E94DF00C3010197F1F760E08CE00E9474
:10196000DF00C3010197F1F78FEFA81AB80AE8CF9B
:10197000D0924504C0924404809051059090520545
:10198000A0903B05B0903C05C0902505D090260561
:10199000E0900F05F09010058114910499F4A114C2
:1019A000B10481F4C114D10469F4E114F10451F4D7
:1019B00068E873E180E090E00E946E018FE391E0BF
:1019C0000E94260580914F0590915005019751F492
:1019D0008091510590915205892B21F48AE491E080
:1019E0000E94260580914F0590915005892B51F456
:1019F0008091510590915205019721F483E791E080
:101A00000E9426058A94892809F086C08CE991E015
:101A10000E9426058091390590913A05019751F46D
:101A200080913B0590913C05892B21F484ED91E058
:101A30000E9426058091390590913A05892B51F431
:101A400080913B0590913C05019721F48DEF91E049
:101A50000E942605AA94AB2809F061C086E292E0B4
:101A60000E9426058091230590912405019751F449
:101A70008091250590912605892B21F48EE592E031
:101A80000E9426058091230590912405892B51F40D
:101A90008091250590912605019721F487E892E031
:101AA0000E942605CA94CD28E9F580EB92E00E94B9
:101AB000260580910D0590910E05019751F48091B6
:101AC0000F0590911005892B21F488EE92E00E9479
:101AD000260580910D0590910E05892B51F480917A
:101AE0000F0590911005019721F481E193E00E9488
:101AF0002605EA94EF28C9F48AE393E00E942605BC
:101B00002114310409F4C6CC0E940D02882309F483
:101B1000BDCC0E940000BACC89EB91E079CF83E480
:101B200092E09ECF8DEC92E0C2CF87E593E0E6CFC6
:101B30008BEF94E00C941E051F93FC0199278827D6
:101B4000BC01E89411911032E9F3193010F01E3005
:101B5000C8F31B3251F01D3249F4689406C00E944C
:101B6000C30D610F711D811D911D119110531A300C
:101B7000B0F33EF490958095709561957F4F8F4FAF
:101B80009F4F1F910895592F482F372F262F660FEB
:101B9000771F881F991F660F771F881F991F620F75
:101BA000731F841F951F660F771F881F991F089545
:101BB000E89409C097FB3EF49095809570956195E7
:101BC0007F4F8F4F9F4F9923A9F0F92F96E9BB279D
:101BD0009395F695879577956795B795F111F8CF19
:101BE000FAF4BB0F11F460FF1BC06F5F7F4F8F4F84
:101BF0009F4F16C0882311F096E911C0772321F07A
:101C00009EE8872F762F05C0662371F096E8862F11
:101C100070E060E02AF09A95660F771F881FDAF768
:101C2000880F9695879597F9089597F99F6780E8AB
:101C300070E060E008959FEF80EC089500240A941E
:101C40001616170618060906089500240A94121697
:101C50001306140605060895092E0394000C11F4CA
:101C6000882352F0BB0F40F4BF2B11F460FF04C077
:101C70006F5F7F4F8F4F9F4F089557FD9058440FD0
:101C8000551F59F05F3F71F04795880F97FB991FDB
:101C900061F09F3F79F08795089512161306140698
:101CA000551FF2CF4695F1DF08C016161706180625
:101CB000991FF1CF86957105610508940895E89400
:101CC000BB2766277727CB0197F908952F923F927C
:101CD0004F925F926F927F928F929F92AF92BF923C
:101CE000CF92DF92EF92FF920F931F93CF93DF93E8
:101CF000CDB7DEB7CA1BDB0B0FB6F894DEBF0FBE45
:101D0000CDBF09942A88398848885F846E847D8491
:101D10008C849B84AA84B984C884DF80EE80FD8093
:101D20000C811B81AA81B981CE0FD11D0FB6F89409
:101D3000DEBF0FBECDBFED0108950E94B10E0C9421
:101D40002C0E0E94250E58F00E941E0E40F029F421
:101D50005F3F29F00C94150E51110C94600E0C94F9
:101D60001B0E0E943D0E68F39923B1F3552391F3A6
:101D7000951B550BBB27AA2762177307840738F0FA
:101D80009F5F5F4F220F331F441FAA1FA9F335D057
:101D90000E2E3AF0E0E832D091505040E695001C0B
:101DA000CAF72BD0FE2F29D0660F771F881FBB1FC5
:101DB000261737074807AB07B0E809F0BB0B802DA3
:101DC000BF01FF2793585F4F3AF09E3F510578F0CF
:101DD0000C94150E0C94600E5F3FE4F3983ED4F320
:101DE000869577956795B795F7959F5FC9F7880FA3
:101DF000911D9695879597F90895E1E0660F771FF5
:101E0000881FBB1F621773078407BA0720F0621B85
:101E1000730B840BBA0BEE1F88F7E09508950E94B0
:101E2000160F6894B1110C94600E08950E94450E2F
:101E300088F09F5798F0B92F9927B751B0F0E1F08B
:101E4000660F771F881F991F1AF0BA95C9F714C03B
:101E5000B13091F00E945F0EB1E008950C945F0ED6
:101E6000672F782F8827B85F39F0B93FCCF3869574
:101E700077956795B395D9F73EF4909580957095D1
:101E800061957F4F8F4F9F4F0895EE0FFF1F059075
:101E9000F491E02D09940F931F93CF93DF93823039
:101EA000910510F482E090E0E0916705F0916805FB
:101EB00030E020E0B0E0A0E0309799F42115310542
:101EC00009F44AC0281B390B24303105D8F58A8122
:101ED0009B816115710589F1FB0193838283FE016A
:101EE00011C0408151810281138148175907E0F0E8
:101EF0004817590799F4109761F012960C931297AE
:101F000013961C933296CF01DF91CF911F910F91C1
:101F100008950093670510936805F4CF21153105E6
:101F200051F04217530738F0A901DB019A01BD01B6
:101F3000DF01F801C1CFEF01F9CF909368058093DD
:101F40006705CDCFFE01E20FF31F819391932250DD
:101F5000310939832883D7CF2091650530916605F3
:101F6000232B41F420910201309103013093660547
:101F70002093650520910001309101012115310563
:101F800041F42DB73EB74091040150910501241B47
:101F9000350BE0916505F0916605E217F307A0F4B3
:101FA0002E1B3F0B2817390778F0AC014E5F5F4FAF
:101FB0002417350748F04E0F5F1F50936605409376
:101FC0006505819391939FCFF0E0E0E09CCFCF93A4
:101FD000DF930097E9F0FC01329713821282A091FF
:101FE0006705B0916805ED0130E020E01097A1F49D
:101FF00020813181820F931F209165053091660504
:102000002817390709F061C0F0936605E09365056C
:10201000DF91CF910895EA01CE17DF07E8F54A81F5
:102020005B819E0141155105B1F7E901FB83EA830C
:1020300049915991C40FD51FEC17FD0761F48081B8
:1020400091810296840F951FE9019983888382818B
:1020500093819B838A83F0E0E0E012968D919C91BE
:1020600013970097B9F52D913C911197CD010296E8
:10207000820F931F20916505309166052817390757
:1020800039F6309751F51092680510926705B093B4
:102090006605A0936505BCCFD383C283408151817F
:1020A000840F951FC817D90761F44E5F5F4F888171
:1020B0009981480F591F518340838A819B81938363
:1020C00082832115310509F0B0CFF0936805E093C4
:1020D00067059ECFFD01DC01C0CF13821282D7CFEE
:1020E000B0E0A0E0E6E7F0E10C94680E8C01009708
:1020F00051F4CB010E944B0F8C01C801CDB7DEB764
:10210000E0E10C94840EFC01E60FF71F9C012250C5
:102110003109E217F30708F49DC0D901CD91DC9194
:102120001197C617D70798F0C530D10530F3CE0107
:1021300004978617970708F3C61BD70B2297C193FE
:10214000D1936D937C93CF010E94E70FD6CF5B01B3
:10215000AC1ABD0A4C018C0E9D1EA0916705B09172
:102160006805512C412CF12CE12C109731F5809110
:102170006505909166058815990509F05CC04616BD
:10218000570608F058C08091000190910101009716
:1021900041F48DB79EB74091040150910501841B15
:1021A000950BE817F90708F055C0F0936605E09322
:1021B0006505F90171836083A0CF8D919C91119782
:1021C00012966C90129713967C901397A815B905E8
:1021D00059F56C0142E0C40ED11CCA14DB0420F195
:1021E000AC014A195B09DA011296159780F06282F8
:1021F000738251834083D9016D937C93E114F10480
:1022000071F0D7011396FC93EE93129776CF229636
:102210008C0F9D1FF90191838083F301EFCFF09321
:102220006805E093670569CF4816590608F42C0144
:102230007D01D3019ACFCB010E944B0F7C01009707
:1022400049F0AE01B8010E942D11C8010E94E70FAC
:10225000870153CF10E000E050CFFB01DC0102C04A
:1022600001900D9241505040D8F70895FB01DC01D8
:1022700001900D920020E1F70895FB015191552343
:10228000A9F0BF01DC014D9145174111E1F759F467
:10229000CD010190002049F04D9140154111C9F345
:1022A000FB014111EFCF81E090E00197089510E02C
:1022B000C2E6D0E004C0FE010E94450F2196C3365D
:0822C000D107C9F7F894FFCF24
:1022C800000069058000000000004302A301D0015E
:1022D80090020102DF01F30100000000CF03A20316
:1022E800E50478039B0388037903000000001805C0
:1022F800A301E504A2010D0A004100420043006762
:102308006F20746F20486F6D6500546865206C6994
:102318006D69742073776974636820313A20554E6B
:10232800544F5543484544202D3E20544F5543486B
:10233800454400546865206C696D69742073776939
:1023480074636831203A20544F5543484544202D42
:102358003E20554E544F5543484544005468652027
:102368006C696D697420737769746368313A2055B4
:102378004E544F554348454400546865206C696D78
:10238800697420737769746368313A20544F5543F0
:1023980048454400546865206C696D6974207377FA
:1023A8006974636820323A20554E544F5543484566
:1023B80044202D3E20544F554348454400546865F9
:1023C800206C696D69742073776974636832203A88
:1023D80020544F5543484544202D3E20554E544FD8
:1023E800554348454400546865206C696D697420FC
:1023F800737769746368323A20554E544F55434891
:10240800454400546865206C696D69742073776968
:10241800746368323A20544F554348454400546821
:1024280065206C696D6974207377697463682033FB
:102438003A20554E544F5543484544202D3E20548C
:102448004F554348454400546865206C696D69746C
:102458002073776974636833203A20544F55434892
:102468004544202D3E20554E544F55434845440081
:10247800546865206C696D69742073776974636842
:10248800333A20554E544F554348454400546865E7
:10249800206C696D697420737769746368333A20B6
:1024A800544F554348454400546865206C696D692C
:1024B800742073776974636820343A20554E544FFA
:1024C8005543484544202D3E20544F5543484544E4
:1024D80000546865206C696D69742073776974634A
:1024E8006834203A20544F5543484544202D3E2017
:1024F800554E544F554348454400546865206C690F
:102508006D697420737769746368343A20554E5442
:102518004F554348454400546865206C696D69749B
:1025280020737769746368343A20544F554348459B
:0225380044005D
:00000001FF
