:020000040000FA
:100000000C9463000C948B000C948B000C948B006C
:100010000C948B000C948B000C948B000C948B0034
:100020000C948B000C948B000C948B000C948B0024
:100030000C948B000C948B000C948B000C948B0014
:100040000C9425070C948B000C9495070C946F0767
:100050000C948B000C948B000C948B000C948B00F4
:100060000C94C7070C948B000000000024002700AC
:100070002A0000000000250028002B0000000000DE
:1000800023002600290004040404040404040202DA
:100090000202020203030303030301020408102007
:1000A0004080010204081020010204081020000012
:1000B0000008000201000003040700000000000027
:1000C000000009092E0F11241FBECFEFD8E0DEBFBC
:1000D000CDBF23E0A8E4B1E001C01D92AA34B2076D
:1000E000E1F711E0A0E0B1E0E8E3F6E202C005903C
:1000F0000D92A834B107D9F710E0C2E6D0E004C0F1
:100100002197FE010E94FD10C136D107C9F70E9458
:100110006E090C940F130C940000833081F028F4C6
:10012000813099F08230A9F008958730A9F08830A5
:10013000C9F08430B1F4809180008F7D03C080913C
:1001400080008F7780938000089584B58F7784BD79
:10015000089584B58F7DFBCF8091B0008F77809319
:10016000B00008958091B0008F7DF9CFCF93DF93D9
:10017000282F30E0F901E255FF4F8491F901E6564E
:10018000FF4FD491F901EA57FF4FC491CC23A1F05E
:1001900081110E948D00EC2FF0E0EE0FFF1FE4585C
:1001A000FF4FA591B491EC91ED2381E090E009F42B
:1001B00080E0DF91CF91089580E090E0FACF1F9327
:1001C000CF93DF93282F30E0F901E255FF4F849160
:1001D000F901E656FF4FD491F901EA57FF4FC49158
:1001E000CC23A9F0162F81110E948D00EC2FF0E096
:1001F000EE0FFF1FEE58FF4FA591B4918FB7F89403
:10020000EC91111108C0D095DE23DC938FBFDF91F4
:10021000CF911F910895DE2BF8CFCF93DF9390E01D
:10022000FC01E656FF4F24918A579F4FFC018491B1
:100230008823C9F090E0880F991FFC01E859FF4F0F
:10024000A591B491FC01EE58FF4FC591D491611175
:100250000DC09FB7F8948C91209582238C93888150
:10026000282328839FBFDF91CF910895623051F4F6
:100270009FB7F8943C91822F809583238C93E881DB
:100280002E2BEFCF8FB7F894EC912E2B2C938FBFA2
:10029000EACF3FB7F89480912F0290913002A0915D
:1002A0003102B091320226B5A89B05C02F3F19F04C
:1002B0000196A11DB11D3FBFBA2FA92F982F8827E6
:1002C000BC01CD01620F711D811D911D42E0660FC1
:1002D000771F881F991F4A95D1F708958F929F9293
:1002E000AF92BF92CF92DF92EF92FF924B015C01EF
:1002F0000E9449016B017C010E9449016C197D0932
:100300008E099F09683E734081059105A8F321E09D
:10031000821A9108A108B10888EEC80E83E0D81EA1
:10032000E11CF11C81149104A104B10429F7FF9090
:10033000EF90DF90CF90BF90AF909F908F900895F7
:10034000089508950895AF92BF92CF92DF92EF92F1
:10035000FF920F931F93CF93DF936C017B018B016F
:10036000040F151FEB015E01AE18BF08C017D107BF
:1003700059F06991D601ED91FC910190F081E02D49
:10038000C6010995892B79F7C501DF91CF911F919E
:100390000F91FF90EF90DF90CF90BF90AF900895B6
:1003A000FC01538D448D252F30E0842F90E0821B7B
:1003B000930B541710F0CF96089501970895FC0100
:1003C000918D828D981761F0A28DAE0FBF2FB11D58
:1003D0005D968C91928D9F5F9F73928F90E00895B0
:1003E0008FEF9FEF0895FC01918D828D981731F06A
:1003F000828DE80FF11D858D90E008958FEF9FEFBE
:100400000895FC01918D228D892F90E0805C9F4F93
:10041000821B91098F739927089583E392E00E94CC
:10042000010221E0892B09F420E0822F089580E069
:1004300090E0892B29F00E940D0281110C9400009C
:100440000895FC01A48DA80FB92FB11DA35ABF4F69
:100450002C91848D90E001968F739927848FA689C3
:10046000B7892C93A089B1898C91837080648C9317
:10047000938D848D981306C00288F389E02D8081C6
:100480008F7D80830895EF92FF920F931F93CF93F8
:10049000DF93EC0181E0888F9B8D8C8D98131AC0BF
:1004A000E889F989808185FF15C09FB7F894EE89A6
:1004B000FF896083E889F989808183708064808303
:1004C0009FBF81E090E0DF91CF911F910F91FF904E
:1004D000EF900895F62E0B8D10E00F5F1F4F0F73F6
:1004E0001127E02E8C8D8E110CC00FB607FCFACFB1
:1004F000E889F989808185FFF5CFCE010E9421022C
:10050000F1CFEB8DEC0FFD2FF11DE35AFF4FF08281
:100510009FB7F8940B8FEA89FB8980818062CFCFE7
:10052000CF93DF93EC01888D8823B9F0AA89BB892A
:10053000E889F9898C9185FD03C0808186FD0DC015
:100540000FB607FCF7CF8C9185FFF2CF808185FF36
:10055000EDCFCE010E942102E9CFDF91CF91089526
:100560000F931F93CF93DF93EC0188810E94B60015
:100570002FB7F89440912B0250912C0260912D02DC
:1005800070912E022FBF288939892817390731F039
:100590004A8B5B8B6C8B7D8B998B888B0A891B8933
:1005A0002C893D89401B510B620B730B0A811B8107
:1005B0002C813D81401751076207730730F02E856B
:1005C0003F853D872C879F878E872C853D858E852F
:1005D0009F852817390781F04A855B854230510590
:1005E00081F48E819F81A885B9850196A11DB11DD9
:1005F0008E839F83A887B987DF91CF911F910F9139
:1006000008954115510531F421303105A9F7892BA1
:1006100041F3F2CF4130510579F7232B69F7019768
:1006200059F7DFCF2091B001260F3327331F213236
:100630003105ECF42091D401FC0190E080E02430FD
:1006400069F082E00895A091B0012191AC0140577A
:100650005E4FA40FB52FB11D2C930196861798F30A
:100660008091B001680F6093B00180E0089581E04F
:1006700008951092D40181E08093D6011092D501A3
:1006800061E082E10E94DF0061E083E10E94DF001F
:10069000E9EBF0E080818E7F808380818D7F808395
:1006A00088E48093B80085E48093BC000895CF93DC
:1006B000DF9391E090938F018823B9F0C091B80047
:1006C000D091BA008091BC008A7B8093BC0060E02E
:1006D00082E10E94DF0060E083E10E94DF000E946F
:1006E0003903D093BA00C093B800DF91CF91089539
:1006F0000895E091010280910002E81730F4F0E0E3
:10070000E659FE4F808190E008958FEF9FEF0895A6
:1007100090910102809100022FEF3FEF981748F46B
:10072000E92FF0E0E659FE4F208130E09F5F909383
:100730000102C90108958091000290910102891B74
:10074000990B0895CF92DF92EF92FF920F931F9330
:10075000CF93DF937C01CB018A0120916901222391
:1007600089F0EB016B01C40ED51ECC15DD0569F0D7
:100770006991D701ED91FC910190F081E02DC701C5
:100780000995F3CF642F0E941203C801DF91CF9126
:100790001F910F91FF90EF90DF90CF900895CF932E
:1007A000DF931F92CDB7DEB76983209169012223C1
:1007B000F9F02091FE01203258F021E030E0FC01F8
:1007C0003383228390E080E00F90DF91CF910895F2
:1007D0008091FF01E82FF0E0E75BFE4F9981908365
:1007E0008F5F8093FF018093FE0181E090E0ECCF6A
:1007F00061E0CE0101960E941203F7CFCF92DF9203
:10080000EF92FF920F931F93CF93DF93FC01C4816C
:1008100021E020936901C09348011092FF011092DA
:10082000FE018385682B80ED92E00E94CF03D0917A
:10083000FE01D13208F092C00E9449016B017C0197
:100840008091D401811165C082E08093D40181E060
:100850008093D6018FEF8093D3011092F801D0934B
:10086000F701A9E4B1E0E7EDF1E080E0D81385C03D
:100870001092F9018091F901CC0FC82BC093F901B6
:100880008091D501813009F07CC01092D5010E9481
:1008900049016B017C018091F9018093BB0080913B
:1008A0008B0190918C01A0918D01B0918E01892BCB
:1008B0008A2B8B2B99F00E94490100918B0110919A
:1008C0008C0120918D0130918E016C197D098E096A
:1008D0009F090617170728073907E0F18091BC0028
:1008E00083FDD9CF85EC8093BC000E9449016B0148
:1008F0007C018091D401823009F445C08091D301FC
:100900008F3F61F18091D301803241F18091D30119
:1009100025C080918B0190918C01A0918D01B091A7
:100920008E01892B8A2B8B2B09F48ACF0E944901D7
:1009300000918B0110918C0120918D0130918E01DD
:100940006C197D098E099F090617170728073907B3
:1009500008F076CF80918A010E9457031092FF0120
:100960001092FE0110926901DF91CF911F910F91BA
:10097000FF90EF90DF90CF9008959D9191938F5FBE
:1009800075CF85EEB0CF80918B0190918C01A091B5
:100990008D01B0918E01892B8A2B8B2B09F4A9CF65
:1009A0000E94490100918B0110918C0120918D01D1
:1009B00030918E016C197D098E099F090617170762
:1009C0002807390708F095CFC5CF90E080E008955B
:1009D0000F931F93CF938C01C62F0E94FE036C2FA1
:1009E0006460C8010E94FE036C2F6B7FC8010E94E7
:1009F000FE0383EC90E00197F1F7CF911F910F91E7
:100A000008950F931F93CF93DF938C01D62FC42F9C
:100A1000607F642B0E94E80480E1D89FB00111241C
:100A20006C2BC801DF91CF911F910F910C94E804BA
:100A300041E00E94010581E090E00895CF93DF93AB
:100A4000CDB7DEB728970FB6F894DEBF0FBECDBF87
:100A500098E0E6E0F1E0DE01119601900D929A95A2
:100A6000E1F790914203961708F46FEF262F30E0DC
:100A7000220F331F41E050E04C0F5D1F240F351F44
:100A8000F9016081680F606840E08AE393E028968E
:100A90000FB6F894DEBF0FBECDBFDF91CF910C949F
:100AA0000105FC0180819181009711F00C949F1148
:100AB00008958F929F92AF92BF920F931F93CF93FF
:100AC000DF93CDB7DEB7A1970FB6F894DEBF0FBEA8
:100AD000CDBF19A2423008F44AE08E010F5D1F4FCE
:100AE000842E912CB12CA12CA50194010E94DB1025
:100AF000E62FB901CA01EA3044F5E05DD801EE9372
:100B00008D01232B242B252B79F790E080E0109783
:100B100069F0FD0101900020E9F73197AF014A1B10
:100B20005B0BBD018AE393E00E94A301A1960FB67F
:100B3000F894DEBF0FBECDBFDF91CF911F910F9113
:100B4000BF90AF909F908F900895E95CD7CFCF92E0
:100B5000DF92EF92FF9297FF18C06B017C0141E09A
:100B60006DE28AE393E00E94010566277727CB01B7
:100B70006C197D098E099F094AE00E94590501966A
:100B8000FF90EF90DF90CF9008954AE0FF90EF90B4
:100B9000DF90CF900C945905CF93DF932091E00222
:100BA0003091E102232B89F0FC01C091DC02D0914D
:100BB000DD0260817181CE010E94F512009729F05B
:100BC0008C1B9D0BDF91CF9108958FEF9FEFFACF94
:100BD0000F931F93CF93DF938C01EB01FC01808176
:100BE00091810097E1F06881798161157105A9F023
:100BF000428153812C813D814217530770F00E943E
:100C0000EE128C819D81F801958384831D821C8264
:100C1000DF91CF911F910F9108950E949F118881BC
:100C20009981F801918380838A819B819383828358
:100C30008C819D8195838483198218821B821A82FC
:100C4000E5CFFC0180819181009711F00C94320F67
:100C500060E070E0CB0108950F931F93CF93DF9373
:100C6000EC0188819981009759F02A813B812617F0
:100C7000370730F081E0DF91CF911F910F910895F8
:100C80008B016F5F7F4F0E942812009759F0998364
:100C900088831B830A832C813D81232B59F7FC0118
:100CA0001082E8CF80E0E7CFEF92FF920F931F937F
:100CB000CF93DF93EC017B018A01BA010E942C06DD
:100CC00028813981811114C02115310519F0C9011C
:100CD0000E949F11198218821D821C821B821A8217
:100CE000CE01DF91CF911F910F91FF90EF9008956A
:100CF0001D830C83B701C9010E94EE12F1CFFC01E4
:100D0000118210821382128215821482FB010190DB
:100D10000020E9F73197AF01461B570B0C9454069E
:100D2000CF92DF92EF92FF920F931F93CF93DF93B7
:100D3000EC016B017A014617570720F48D2D6A01EB
:100D4000E62EF82E6FE371E0CE010E947F0600913F
:100D5000E0021091E102C016D10640F5E016F1065E
:100D600008F48701E091DC02F091DD02E00FF11F51
:100D7000F08010826091DC027091DD026C0D7D1DAF
:100D800061157105E9F0FB0101900020E9F7319749
:100D9000AF01461B570BCE010E9454068091DC0226
:100DA0009091DD02080F191FF801F082CE01DF914A
:100DB000CF911F910F91FF90EF90DF90CF9008950A
:100DC00088819981009711F00E949F1119821882E1
:100DD0001D821C821B821A82E1CF85ED8093BC00AC
:100DE00080918B0190918C01A0918D01B0918E0129
:100DF0000796A11DB11D23E0B695A79597958795F8
:100E00002A95D1F72091BC0024FD03C01092D40193
:100E1000089540918B0150918C0160918D017091EA
:100E20008E01452B462B472B69F30097A105B10591
:100E300041F02AE22A95F1F700C00197A109B10912
:100E4000E1CF80918A010C9457031F920F920FB645
:100E50000F9211242F933F938F939F93AF93BF9340
:100E600080912B0290912C02A0912D02B0912E0224
:100E700030912A0223E0230F2D3758F50196A11D4A
:100E8000B11D20932A0280932B0290932C02A093F1
:100E90002D02B0932E0280912F0290913002A091EA
:100EA0003102B09132020196A11DB11D80932F0233
:100EB00090933002A0933102B0933202BF91AF9170
:100EC0009F918F913F912F910F900FBE0F901F9088
:100ED000189526E8230F0296A11DB11DD2CF1F92AF
:100EE0000F920FB60F9211242F933F934F935F935E
:100EF0006F937F938F939F93AF93BF93EF93FF93E2
:100F000083E392E00E942102FF91EF91BF91AF91A4
:100F10009F918F917F916F915F914F913F912F9111
:100F20000F900FBE0F901F9018951F920F920FB643
:100F30000F9211242F938F939F93EF93FF93E09140
:100F40004302F09144028081E0914902F0914A020B
:100F500082FD1BC0908180914C028F5F8F73209126
:100F60004D02821741F0E0914C02F0E0ED5CFD4F44
:100F7000958F80934C02FF91EF919F918F912F91CC
:100F80000F900FBE0F901F9018958081F4CF1F9285
:100F90000F920FB60F9211242F933F934F935F93AD
:100FA0006F937F938F939F93AF93BF93EF93FF9331
:100FB0008091B900887F803609F44AC0F0F5883204
:100FC00009F4A7C018F5803109F49BC0B8F4882350
:100FD00009F4F9C0883009F494C0FF91EF91BF91F2
:100FE000AF919F918F917F916F915F914F913F91C1
:100FF0002F910F900FBE0F901F901895883109F414
:1010000088C0803251F78093D30114C0803409F432
:101010009DC040F48033B9F38833F9F68093D3014F
:1010200085ECB0C0803509F485C0883509F496C0D8
:10103000883499F60E94ED06D0CF883909F48CC027
:1010400038F5883729F050F4883611F0803729F6C2
:1010500083E08093D4011092D20157C0883809F4FC
:101060007BC0803919F0803809F0B7CF8091D20168
:10107000803208F071C0E091D20181E08E0F809340
:10108000D2018091BB00F0E0EE54FE4F80833DC062
:10109000803B39F0E0F4803A09F479C0883A09F0ED
:1010A0009CCF84E08093D4011092B1011092B001E2
:1010B000E091FC01F091FD0109958091B001811151
:1010C0000FC081E08093B0011092900109C0803C74
:1010D00009F4A6CF883C09F4A3CF883B09F07DCF63
:1010E000E091B10181E08E0F8093B101F0E0E05713
:1010F000FE4F80818093BB009091B1018091B0013F
:1011000029C08091F9018093BB0085EC8093BC00DD
:1011100064CF9091F8018091F701981758F5E0910C
:10112000F80181E08E0F8093F801F0E0E952FE4F64
:101130008081E9CFE091F80181E08E0F8093F80182
:101140008091BB00F0E0E952FE4F80839091F8015E
:101150008091F7019817C8F285E8D8CFE091F8019F
:1011600081E08E0F8093F8018091BB00F0E0E9529E
:10117000FE4F80838091D60181115CCF81E0809306
:10118000D50184EA8093BC001092D40126CF85EC6F
:101190008093BC001092D4018091D201803230F44F
:1011A000E091D201F0E0EE54FE4F10826091D20146
:1011B00070E0E091FA01F091FB0182EB91E009957A
:1011C0001092D2010ACF1092D30134CFCF93DF9384
:1011D000EC01862F688379831A821B821C821D8210
:1011E0001E821F82188619861B861A8662E00E945C
:1011F0000D0188810E94B6009D878C879F878E870E
:10120000998B888B1A8A1B8A1C8A1D8ADF91CF9141
:101210000895E3E3F2E01382128288EE93E0A0E007
:10122000B0E084839583A683B78322E131E03183E4
:10123000208325EC30E03587248724EC30E03787A5
:10124000268720EC30E0318B208B21EC30E0338B93
:10125000228B22EC30E0358B248B26EC30E0378B70
:10126000268B118E128E138E148EE0EDF2E0138217
:10127000128284839583A683B78384E291E091836D
:101280008083EAE3F3E01382128286E391E09183A4
:10129000808387E2848380E1818782E0828713866E
:1012A00069E070E084E293E00E94E6086AE070E0A2
:1012B0008EE093E00E94E6086BE070E088EF92E039
:1012C0000E94E6086EE070E082EE92E00E94E6087E
:1012D0006FE371E08CED92E00C947F06CF93DF9387
:1012E000CDB7DEB7A4970FB6F894DEBF0FBECDBF63
:1012F000789484B5826084BD84B5816084BD85B5F1
:10130000826085BD85B5816085BD80916E008160FC
:1013100080936E00109281008091810082608093A2
:1013200081008091810081608093810080918000A4
:101330008160809380008091B10084608093B100CF
:101340008091B00081608093B00080917A008460C9
:1013500080937A0080917A00826080937A008091F5
:101360007A00816080937A0080917A00806880930F
:101370007A001092C100E0914302F091440282E0B1
:101380008083E0913F02F09140021082E09141029F
:10139000F09142028FEC808310924B02E091470261
:1013A000F091480286E08083E0914502F091460288
:1013B000808180618083E0914502F09146028081C6
:1013C00088608083E0914502F091460280818068C8
:1013D0008083E0914502F091460280818F7D808379
:1013E00010920102109200021092FF011092FE0171
:1013F0000E94390380EA91E09093FD018093FC0103
:1014000081EA91E09093FB018093FA0110923F03EF
:1014100080914403823018F098E090933F038093CA
:10142000420362E370E080E090E00E946E01609110
:1014300045038AE393E00E94FE0368EE73E080E0D8
:1014400090E00E946E0160E38AE393E00E94E8046A
:101450000BE416E4C8010197F1F760E38AE393E037
:101460000E94E804C8010197F1F760E38AE393E082
:101470000E94E80483E592E00197F1F760E28AE3D5
:1014800093E00E94E80460913F03606240E08AE3D9
:1014900093E00E94010584E08093400340E06CE00B
:1014A0008AE393E00E94010540E061E08AE393E073
:1014B0000E9401050BE31FE1C8010197F1F782E0EB
:1014C0008093410340E066E08AE393E00E940105D7
:1014D00040E062E08AE393E00E940105C8010197C1
:1014E000F1F788E08093450360E08AE393E00E948F
:1014F000FE0361E088E00E940D0161E082E00E944D
:101500000D0161E085E00E940D0161E083E00E9431
:101510000D0161E086E00E940D0161E084E00E941F
:101520000D0161E087E00E940D0161E08CE00E9406
:101530000D0161E08DE00E940D0160E088E00E94F5
:10154000DF0082E390E0A0E0B0E080932603909378
:101550002703A0932803B09329038093100390934B
:101560001103A0931203B09313038093FA02909394
:10157000FB02A093FC02B093FD028093E4029093DF
:10158000E502A093E602B093E7020BE91FE04BED02
:10159000E42E4EE2F42E5BE3A52E5FE1B52E84E24D
:1015A00093E00E94B0028EE093E00E94B00288EFC8
:1015B00092E00E94B00282EE92E00E94B00283E3C9
:1015C00092E00E9401021816190664F583E392E086
:1015D0000E94DF01809329028A3021F189831A82D7
:1015E000C090E002D090E1028FEFC81AD80AB6018D
:1015F0008CED92E00E942C06882309F32091DC02F6
:101600003091DD028091E0029091E102BE016F5FB6
:101610007F4F820F931F0E94EE12D092E102C09280
:10162000E002CDCF809129028A3009F037C16FE303
:1016300071E0CE014F960E947F066FE371E0CE010C
:1016400049960E947F066FE371E0CE0143960E94A7
:101650007F066FE371E0CE010D960E947F066FE377
:1016600071E0CE0107960E947F066EE371E0CE0125
:1016700001960E947F06CE0101960E94CC05782E2D
:1016800080930602CE0101960E94510560E471E04C
:10169000CE0101960E947F06CE0101960E94CC05E4
:1016A000882E80930502CE0101960E94510562E4C6
:1016B00071E0CE0101960E947F06CE0101960E9444
:1016C000CC05C82E80930402CE0101960E945105DC
:1016D00064E471E0CE0101960E947F06CE0101967E
:1016E0000E94CC05D82E80930302CE0101960E9461
:1016F000510566E471E0CE0101960E947F06CE019D
:1017000001960E94CC05982E80930202CE0101968C
:101710000E94510577FC1DC0472D072C000C550B6E
:1017200070E060E0CE0101960E949006BE016F5FFE
:101730007F4FCE014F960E94E805CE0101960E9490
:101740005105CE014F960E942106709316026093B8
:10175000150287FC20C0672D770C770B6F5F7F4FDA
:10176000482D082C000C550BCE0101960E949006C6
:10177000BE016F5F7F4FCE0149960E94E805CE0102
:1017800001960E945105CE0149960E942106709350
:10179000140260931302C7FC20C0682D880C770BDD
:1017A0006F5F7F4F4C2D0C2C000C550BCE0101961A
:1017B0000E949006BE016F5F7F4FCE0143960E944C
:1017C000E805CE0101960E945105CE0143960E9484
:1017D00021067093120260931102D7FC20C06C2D79
:1017E000CC0C770B6F5F7F4F4D2D0D2C000C550BE4
:1017F000CE0101960E949006BE016F5F7F4FCE0121
:101800000D960E94E805CE0101960E945105CE0179
:101810000D960E9421067093100260930F0297FCB0
:101820001FC0492D990C550B6D2DDD0C770B6F5F8B
:101830007F4FCE0101960E949006BE016F5F7F4FE1
:10184000CE0107960E94E805CE0101960E9451053F
:10185000CE0107960E94210670932802609327020A
:10186000CE0107960E945105CE010D960E945105AA
:10187000CE0143960E945105CE0149960E94510522
:10188000CE014F960E9451051092290250E040E08F
:101890006FE371E08CED92E00E945406C090150257
:1018A000D090160280911D0290911E02C816D90692
:1018B00009F440C0B601681B790B072E000C880B99
:1018C000990B0E94700F26E636E646E65DE30E941D
:1018D00033100E94A5104B01709308026093070219
:1018E00061E0181419040CF460E085E00E94DF0048
:1018F000712C612C4424552448185908C40197FCC4
:10190000C2016816790694F461E082E00E94DF006B
:10191000C8010197F1F760E082E00E94DF00C80192
:101920000197F1F78FEF681A780AE8CFD0921E027C
:10193000C0921D02409013025090140280911B022D
:1019400090911C024816590609F440C0B201681B68
:10195000790B072E000C880B990B0E94700F2AE957
:1019600039E949E15DE30E9433100E94A5104B0163
:1019700070930A026093090261E0181419040CF0D4
:1019800060E086E00E94DF00712C612C2224332469
:1019900028183908C40197FCC1016816790694F427
:1019A00061E083E00E94DF00C7010197F1F760E08A
:1019B00083E00E94DF00C7010197F1F78FEF681AFB
:1019C000780AE8CF50921C0240921B02409011020C
:1019D000509012028091190290911A0248165906ED
:1019E00009F440C0B201681B790B072E000C880B6C
:1019F000990B0E94700F2DEC3CEC4CEC5CE30E94C8
:101A000033100E94A5104B0170930C0260930B02DF
:101A100061E0181419040CF460E087E00E94DF0014
:101A2000712C612C2224332428183908C40197FC16
:101A3000C1016816790694F461E084E00E94DF0039
:101A4000C7010197F1F760E084E00E94DF00C70161
:101A50000197F1F78FEF681A780AE8CF50921A02CF
:101A60004092190240900F0250901002809117028C
:101A7000909118024816590609F440C0B201681B3B
:101A8000790B072E000C880B990B0E94700F2CEE1F
:101A900031E548E35DE30E9433100E94A5104B013D
:101AA00070930E0260930D0261E0181419040CF497
:101AB00060E08DE00E94DF00712C612C2224332431
:101AC00028183908C40197FCC1016816790694F4F6
:101AD00061E08CE00E94DF00C5010197F1F760E052
:101AE0008CE00E94DF00C5010197F1F78FEF681AC3
:101AF000780AE8CF509218024092170260E081E025
:101B00000E941E05B601DD0C880B990B0E94A705EB
:101B100060E085E00E941E0560911302709114023E
:101B2000072E000C880B990B0E94A70561E081E04D
:101B30000E941E056091110270911202072E000C86
:101B4000880B990B0E94A70561E085E00E941E05A5
:101B500060910F0270911002072E000C880B990BF8
:101B60000E94A7058091270290912802813091055B
:101B700009F060C160911C0370911D034091060340
:101B8000509107032091F0023091F102E09132036D
:101B9000F0913303EF2B21F49093260280932502DA
:101BA000672B31F481E090E090932402809323022C
:101BB000452B31F481E090E0909322028093210242
:101BC000232B31F481E090E09093200280931F0258
:101BD000609025027090260280902302909024024B
:101BE0004090210250902202C0901F02D09020020B
:101BF0006114710409F0F3C081E08816910409F0C2
:101C0000EEC081E048165104B1F481E0C816D10459
:101C100091F460E085E00E94DF0061E082E00E94D4
:101C2000DF00C8010197F1F760E082E00E94DF0069
:101C3000C8010197F1F74114510409F0E2C081E0B5
:101C40008816910409F0F6C081E0C816D10409F0A5
:101C5000FEC061E087E00E94DF0061E084E00E9456
:101C6000DF00C7010197F1F760E084E00E94DF0028
:101C7000C7010197F1F76A94672809F0DBC08A94DD
:101C8000892809F0D7C04A94452809F0D3C0CA94DE
:101C9000CD2809F0CFC060E082E00E94DF00C801DB
:101CA0000197F1F760E085E00E94DF003DE1C32E7F
:101CB00032E0D32E61E082E00E94DF00C80101978C
:101CC000F1F760E082E00E94DF00C8010197F1F7C0
:101CD00081E0C81AD10871F761E086E00E94DF0058
:101CE00021E8C22E2CE0D22E60E083E00E94DF00CB
:101CF000C8010197F1F760E083E00E94DF00C801AE
:101D00000197F1F781E0C81AD10871F760E087E028
:101D10000E94DF0097ECC92E91E1D92E61E084E0AA
:101D20000E94DF00C5010197F1F760E084E00E94A6
:101D3000DF00C5010197F1F781E0C81AD10871F7FA
:101D400060E08DE00E94DF008FEBC82E8AE0D82E85
:101D500061E08CE00E94DF00C8010197F1F760E0CC
:101D60008CE00E94DF00C8010197F1F781E0C81AFA
:101D7000D10871F7109226021092250210922402C7
:101D8000109223021092220210922102109220023D
:101D900010921F0210921E0210921D0210921C023D
:101DA00010921B0210921A0210921902109218023D
:101DB000109217021092160210921502109214023D
:101DC000109213021092120210921102109210023D
:101DD00010920F0210922802109227022BC0811439
:101DE000910409F028CF61E086E00E94DF0061E005
:101DF00083E00E94DF00C8010197F1F760E083E013
:101E000015CFC114D10409F036CF8A94892891F4F2
:101E100061E08DE00E94DF0061E08CE00E94DF0065
:101E2000C8010197F1F760E08CE00E94DF00C80173
:101E30000197F1F780E090E0892B09F4B0CB0E9484
:101E40000D02882309F4ABCB0E940000A8CBC1147B
:101E5000D104F1F26A94672869F715CF8CED92E00E
:101E60000C9451051F93FC0199278827BC01E89425
:101E700011911032E9F3193010F01E30C8F31B3203
:101E800051F01D3249F4689406C00E94590F610F49
:101E9000711D811D911D119110531A30B0F33EF444
:101EA00090958095709561957F4F8F4F9F4F1F91B3
:101EB0000895592F482F372F262F660F771F881F19
:101EC000991F660F771F881F991F620F731F841F4A
:101ED000951F660F771F881F991F0895E89409C002
:101EE00097FB3EF490958095709561957F4F8F4F4D
:101EF0009F4F9923A9F0F92F96E9BB279395F69563
:101F0000879577956795B795F111F8CFFAF4BB0FE0
:101F100011F460FF1BC06F5F7F4F8F4F9F4F16C044
:101F2000882311F096E911C0772321F09EE8872FCE
:101F3000762F05C0662371F096E8862F70E060E08A
:101F40002AF09A95660F771F881FDAF7880F969503
:101F5000879597F9089597F99F6780E870E060E0AA
:101F600008959FEF80EC089500240A941616170632
:101F700018060906089500240A941216130614067A
:101F800005060895092E0394000C11F4882352F0DD
:101F9000BB0F40F4BF2B11F460FF04C06F5F7F4F95
:101FA0008F4F9F4F089557FD9058440F551F59F07C
:101FB0005F3F71F04795880F97FB991F61F09F3F36
:101FC00079F087950895121613061406551FF2CF5F
:101FD0004695F1DF08C0161617061806991FF1CFAF
:101FE00086957105610508940895E894BB276627D6
:101FF0007727CB0197F908952F923F924F925F92E6
:102000006F927F928F929F92AF92BF92CF92DF9208
:10201000EF92FF920F931F93CF93DF93CDB7DEB76D
:10202000CA1BDB0B0FB6F894DEBF0FBECDBF099401
:102030002A88398848885F846E847D848C849B8458
:10204000AA84B984C884DF80EE80FD800C811B8166
:10205000AA81B981CE0FD11D0FB6F894DEBF0FBE95
:10206000CDBFED0108950E9447100C94C20F0E944D
:10207000BB0F58F00E94B40F40F029F45F3F29F0E5
:102080000C94AB0F51110C94F60F0C94B10F0E94ED
:10209000D30F68F39923B1F3552391F3951B550B97
:1020A000BB27AA2762177307840738F09F5F5F4F2B
:1020B000220F331F441FAA1FA9F335D00E2E3AF06A
:1020C000E0E832D091505040E695001CCAF72BD082
:1020D000FE2F29D0660F771F881FBB1F26173707D3
:1020E0004807AB07B0E809F0BB0B802DBF01FF2705
:1020F00093585F4F3AF09E3F510578F00C94AB0F28
:102100000C94F60F5F3FE4F3983ED4F386957795F1
:102110006795B795F7959F5FC9F7880F911D9695BD
:10212000879597F90895E1E0660F771F881FBB1F19
:10213000621773078407BA0720F0621B730B840BC6
:10214000BA0BEE1F88F7E09508950E94AC106894D2
:10215000B1110C94F60F08950E94DB0F88F09F5781
:1021600098F0B92F9927B751B0F0E1F0660F771FBB
:10217000881F991F1AF0BA95C9F714C0B13091F0B1
:102180000E94F50FB1E008950C94F50F672F782F9A
:102190008827B85F39F0B93FCCF386957795679576
:1021A000B395D9F73EF490958095709561957F4FE2
:1021B0008F4F9F4F0895A1E21A2EAA1BBB1BFD0152
:1021C0000DC0AA1FBB1FEE1FFF1FA217B307E40716
:1021D000F50720F0A21BB30BE40BF50B661F771F6E
:1021E000881F991F1A9469F760957095809590954E
:1021F0009B01AC01BD01CF010895EE0FFF1F0590BB
:10220000F491E02D09940F931F93CF93DF938230C5
:10221000910510F482E090E0E0914803F0914903C9
:1022200030E020E0B0E0A0E0309799F421153105CE
:1022300009F44AC0281B390B24303105D8F58A81AE
:102240009B816115710589F1FB0193838283FE01F6
:1022500011C0408151810281138148175907E0F074
:102260004817590799F4109761F012960C9312973A
:1022700013961C933296CF01DF91CF911F910F914E
:1022800008950093480310934903F4CF21153105B5
:1022900051F04217530738F0A901DB019A01BD0143
:1022A000DF01F801C1CFEF01F9CF9093490380938B
:1022B0004803CDCFFE01E20FF31F8193919322508B
:1022C000310939832883D7CF2091460330914703C2
:1022D000232B41F4209102013091030130934703F5
:1022E0002093460320910001309101012115310511
:1022F00041F42DB73EB74091040150910501241BD4
:10230000350BE0914603F0914703E217F307A0F481
:102310002E1B3F0B2817390778F0AC014E5F5F4F3B
:102320002417350748F04E0F5F1F50934703409323
:102330004603819391939FCFF0E0E0E09CCFCF9351
:10234000DF930097E9F0FC01329713821282A0918B
:102350004803B0914903ED0130E020E01097A1F46B
:1023600020813181820F931F2091460330914703D2
:102370002817390709F061C0F0934703E09346033B
:10238000DF91CF910895EA01CE17DF07E8F54A8182
:102390005B819E0141155105B1F7E901FB83EA8399
:1023A00049915991C40FD51FEC17FD0761F4808145
:1023B00091810296840F951FE90199838883828118
:1023C00093819B838A83F0E0E0E012968D919C914B
:1023D00013970097B9F52D913C911197CD01029675
:1023E000820F931F20914603309147032817390726
:1023F00039F6309751F51092490310924803B09383
:102400004703A0934603BCCFD383C283408151814D
:10241000840F951FC817D90761F44E5F5F4F8881FD
:102420009981480F591F518340838A819B819383EF
:1024300082832115310509F0B0CFF0934903E09371
:1024400048039ECFFD01DC01C0CF13821282D7CF9B
:10245000B0E0A0E0EEE2F2E10C94FE0F8C010097F8
:1024600051F4CB010E9403118C01C801CDB7DEB736
:10247000E0E10C941A10FC01E60FF71F9C012250BA
:102480003109E217F30708F49DC0D901CD91DC9121
:102490001197C617D70798F0C530D10530F3CE0194
:1024A00004978617970708F3C61BD70B2297C1938B
:1024B000D1936D937C93CF010E949F11D6CF5B0186
:1024C000AC1ABD0A4C018C0E9D1EA0914803B09120
:1024D0004903512C412CF12CE12C109731F58091BE
:1024E0004603909147038815990509F05CC046168C
:1024F000570608F058C080910001909101010097A3
:1025000041F48DB79EB74091040150910501841BA1
:10251000950BE817F90708F055C0F0934703E093CF
:102520004603F90171836083A0CF8D919C9111972F
:1025300012966C90129713967C901397A815B90574
:1025400059F56C0142E0C40ED11CCA14DB0420F121
:10255000AC014A195B09DA011296159780F0628284
:10256000738251834083D9016D937C93E114F1040C
:1025700071F0D7011396FC93EE93129776CF2296C3
:102580008C0F9D1FF90191838083F301EFCFF093AE
:102590004903E093480369CF4816590608F42C0113
:1025A0007D01D3019ACFCB010E9403117C010097DA
:1025B00049F0AE01B8010E94E512C8010E949F11C6
:1025C000870153CF10E000E050CFFB01DC0102C0D7
:1025D00001900D9241505040D8F70895FB01DC0165
:1025E00001900D920020E1F70895FB0151915523D0
:1025F000A9F0BF01DC014D9145174111E1F759F4F4
:10260000CD010190002049F04D9140154111C9F3D1
:10261000FB014111EFCF81E090E00197089510E0B8
:10262000C2E6D0E004C0FE010E94FD102196C33630
:10263000D107C9F7F894FFCF00004A0380000000DB
:10264000400014005400000000004302A301D00128
:1026500090020102DF01F30100000000CF03A2039A
:10266000E50478039B038803790300000000180544
:10267000A301E504A20141004200430044004800D8
:107E0000112484B714BE81FFF0D085E080938100F7
:107E100082E08093C00088E18093C10086E0809377
:107E2000C20080E18093C4008EE0C9D0259A86E02C
:107E300020E33CEF91E0309385002093840096BBD3
:107E4000B09BFECF1D9AA8958150A9F7CC24DD24C4
:107E500088248394B5E0AB2EA1E19A2EF3E0BF2EE7
:107E6000A2D0813461F49FD0082FAFD0023811F036
:107E7000013811F484E001C083E08DD089C08234E0
:107E800011F484E103C0853419F485E0A6D080C0E4
:107E9000853579F488D0E82EFF2485D0082F10E0AE
:107EA000102F00270E291F29000F111F8ED06801E7
:107EB0006FC0863521F484E090D080E0DECF843638
:107EC00009F040C070D06FD0082F6DD080E0C81688
:107ED00080E7D80618F4F601B7BEE895C0E0D1E017
:107EE00062D089930C17E1F7F0E0CF16F0E7DF06D8
:107EF00018F0F601B7BEE89568D007B600FCFDCFD4
:107F0000A601A0E0B1E02C9130E011968C91119780
:107F100090E0982F8827822B932B1296FA010C0160
:107F200087BEE89511244E5F5F4FF1E0A038BF0790
:107F300051F7F601A7BEE89507B600FCFDCF97BE46
:107F4000E89526C08437B1F42ED02DD0F82E2BD052
:107F50003CD0F601EF2C8F010F5F1F4F84911BD097
:107F6000EA94F801C1F70894C11CD11CFA94CF0C13
:107F7000D11C0EC0853739F428D08EE10CD085E9AC
:107F80000AD08FE07ACF813511F488E018D01DD067
:107F900080E101D065CF982F8091C00085FFFCCF94
:107FA0009093C60008958091C00087FFFCCF809118
:107FB000C00084FD01C0A8958091C6000895E0E648
:107FC000F0E098E1908380830895EDDF803219F02E
:107FD00088E0F5DFFFCF84E1DECF1F93182FE3DFCA
:107FE0001150E9F7F2DF1F91089580E0E8DFEE27F6
:047FF000FF270994CA
:027FFE00040479
:00000001FF
