:020000040000FA
:100000000C945E000C9486000C9486000C94860080
:100010000C9486000C9486000C9486000C94860048
:100020000C9486000C9486000C9486000C94860038
:100030000C9486000C9486000C9486000C94860028
:100040000C94C7060C9486000C9437070C94110787
:100050000C9486000C9486000C9486000C94860008
:100060000C9469070C94860000000008000201004F
:100070000003040700000000000000000000000072
:10008000250028002B0000000000240027002A0083
:10009000040404040404040402020202020203032E
:1000A0000303030301020408102040800102040836
:1000B00010200102040810208808640B11241FBEC0
:1000C000CFEFD8E0DEBFCDBF22E0A6E4B1E001C0B3
:1000D0001D92A13DB207E1F711E0A0E0B1E0E4EA32
:1000E000FEE102C005900D92A634B107D9F710E0E9
:1000F000CDE5D0E004C02197FE010E94330DCC3540
:10010000D107C9F70E94D5080C94450F0C94000044
:1001100090E0FC01EC55FF4F249180579F4FFC016C
:100120008491882399F090E0880F991FFC01EA5789
:10013000FF4FA591B491FC01E458FF4F8591949134
:100140008FB7F894EC91E22BEC938FBF089590E079
:10015000FC01E859FF4F2491FC01EC55FF4F34910D
:10016000FC01E057FF4FE491EE23C9F0222339F060
:10017000233001F1A8F4213019F1223029F1F0E007
:10018000EE0FFF1FE458FF4FA591B4918FB7F8947D
:10019000EC91611126C030953E233C938FBF0895AA
:1001A0002730A9F02830C9F0243049F78091800029
:1001B0008F7D03C0809180008F7780938000DFCF98
:1001C00084B58F7784BDDBCF84B58F7DFBCF8091E5
:1001D000B0008F778093B000D2CF8091B0008F7D38
:1001E000F9CF3E2BDACF3FB7F89480910E02909171
:1001F0000F02A0911002B091110226B5A89B05C074
:100200002F3F19F00196A11DB11D3FBFBA2FA92F95
:10021000982F8827BC01CD01620F711D811D911D92
:1002200042E0660F771F881F991F4A95D1F70895FE
:100230008F929F92AF92BF92CF92DF92EF92FF92F6
:100240004B015C010E94F3006B017C010E94F300F2
:100250006C197D098E099F09683E734081059105DF
:10026000A8F321E0821A9108A108B10888EEC80E0F
:1002700083E0D81EE11CF11C81149104A104B10497
:1002800029F7FF90EF90DF90CF90BF90AF909F90B5
:100290008F900895089508950895AF92BF92CF92D8
:1002A000DF92EF92FF920F931F93CF93DF936C0136
:1002B0007B018B01040F151FEB015E01AE18BF0817
:1002C000C017D10759F06991D601ED91FC910190C9
:1002D000F081E02DC6010995892B79F7C501DF91E1
:1002E000CF911F910F91FF90EF90DF90CF90BF9033
:1002F000AF900895FC01538D448D252F30E0842F5D
:1003000090E0821B930B541710F0CF96089501973D
:100310000895FC01918D828D981761F0A28DAE0F2A
:10032000BF2FB11D5D968C91928D9F5F9F73928FB1
:1003300090E008958FEF9FEF0895FC01918D828DDD
:10034000981731F0828DE80FF11D858D90E00895AA
:100350008FEF9FEF0895FC01918D228D892F90E002
:10036000805C9F4F821B91098F739927089582E1CA
:1003700092E00E94AB0121E0892B09F420E0822F5A
:10038000089580E090E0892B29F00E94B701811147
:100390000C9400000895FC01A48DA80FB92FB11D85
:1003A000A35ABF4F2C91848D90E001968F739927AB
:1003B000848FA689B7892C93A089B1898C91837089
:1003C00080648C93938D848D981306C00288F38982
:1003D000E02D80818F7D80830895EF92FF920F93AF
:1003E0001F93CF93DF93EC0181E0888F9B8D8C8DE1
:1003F00098131AC0E889F989808185FF15C09FB7D5
:10040000F894EE89FF896083E889F9898081837097
:10041000806480839FBF81E090E0DF91CF911F9146
:100420000F91FF90EF900895F62E0B8D10E00F5F67
:100430001F4F0F731127E02E8C8D8E110CC00FB63D
:1004400007FCFACFE889F989808185FFF5CFCE01D5
:100450000E94CB01F1CFEB8DEC0FFD2FF11DE35A84
:10046000FF4FF0829FB7F8940B8FEA89FB89808158
:100470008062CFCFCF93DF93EC01888D8823B9F0D2
:10048000AA89BB89E889F9898C9185FD03C080819F
:1004900086FD0DC00FB607FCF7CF8C9185FFF2CF1C
:1004A000808185FFEDCFCE010E94CB01E9CFDF91A6
:1004B000CF9108952091AE01260F3327331F2132AB
:1004C0003105ECF42091D201FC0190E080E0243071
:1004D00069F082E00895A091AE012191AC014257EC
:1004E0005E4FA40FB52FB11D2C930196861798F37C
:1004F0008091AE01680F6093AE0180E0089581E0C5
:1005000008951092D20181E08093D4011092D3011A
:1005100061E082E10E94A70061E083E10E94A70000
:10052000E9EBF0E080818E7F808380818D7F808306
:1005300088E48093B80085E48093BC000895CF934D
:10054000DF9391E090938D018823B9F0C091B800BA
:10055000D091BA008091BC008A7B8093BC0060E09F
:1005600082E10E94A70060E083E10E94A7000E9450
:100570008102D093BA00C093B800DF91CF91089563
:100580000895E091FF018091FE01E81730F4F0E05A
:10059000E859FE4F808190E008958FEF9FEF089516
:1005A0009091FF018091FE012FEF3FEF981748F4E3
:1005B000E92FF0E0E859FE4F208130E09F5F9093F3
:1005C000FF01C90108958091FE019091FF01891BEF
:1005D000990B0895CF92DF92EF92FF920F931F93A2
:1005E000CF93DF937C01CB018A0120916701222305
:1005F00089F0EB016B01C40ED51ECC15DD0569F049
:100600006991D701ED91FC910190F081E02DC70136
:100610000995F3CF642F0E945A02C801DF91CF9150
:100620001F910F91FF90EF90DF90CF900895CF939F
:10063000DF931F92CDB7DEB7698320916701222334
:10064000F9F02091FC01203258F021E030E0FC016B
:100650003383228390E080E00F90DF91CF91089563
:100660008091FD01E82FF0E0E95BFE4F99819083D6
:100670008F5F8093FD018093FC0181E090E0ECCFDF
:1006800061E0CE0101960E945A02F7CFCF92DF922D
:10069000EF92FF920F931F93CF93DF93FC01C481DE
:1006A00021E020936701C09346011092FD01109252
:1006B000FC018385682B8FEA92E00E941703D0919A
:1006C000FC01D13208F092C00E94F3006B017C0162
:1006D0008091D201811165C082E08093D20181E0D6
:1006E0008093D4018FEF8093D1011092F601D093C3
:1006F000F501A7E4B1E0E5EDF1E080E0D81385C0B5
:100700001092F7018091F701CC0FC82BC093F7012D
:100710008091D301813009F07CC01092D3010E94F6
:10072000F3006B017C018091F7018093BB00809105
:10073000890190918A01A0918B01B0918C01892B44
:100740008A2B8B2B99F00E94F30000918901109164
:100750008A0120918B0130918C016C197D098E09E1
:100760009F090617170728073907E0F18091BC0099
:1007700083FDD9CF85EC8093BC000E94F3006B0110
:100780007C018091D201823009F445C08091D10171
:100790008F3F61F18091D101803241F18091D1018F
:1007A00025C08091890190918A01A0918B01B0911F
:1007B0008C01892B8A2B8B2B09F48ACF0E94F300A2
:1007C0000091890110918A0120918B0130918C0157
:1007D0006C197D098E099F09061717072807390725
:1007E00008F076CF809188010E949F021092FD014F
:1007F0001092FC0110926701DF91CF911F910F9130
:10080000FF90EF90DF90CF9008959D9191938F5F2F
:1008100075CF85EEB0CF8091890190918A01A0912A
:100820008B01B0918C01892B8A2B8B2B09F4A9CFDA
:100830000E94F3000091890110918A0120918B019F
:1008400030918C016C197D098E099F0906171707D5
:100850002807390708F095CFC5CF90E080E00895CC
:100860000F931F93CF938C01C62F0E9446036C2FCA
:100870006460C8010E9446036C2F6B7FC8010E9410
:10088000460383EC90E00197F1F7CF911F910F9110
:1008900008950F931F93CF93DF938C01D62FC42F0E
:1008A000607F642B0E94300480E1D89FB001112446
:1008B0006C2BC801DF91CF911F910F910C943004E4
:1008C000CF93DF93CDB7DEB728970FB6F894DEBF8E
:1008D0000FBECDBF98E0E6E0F1E0DE011196019099
:1008E0000D929A95E1F79091C902961708F46FEF6F
:1008F000262F30E0220F331F41E050E04C0F5D1FE8
:10090000240F351FF9016081680F606840E081ECB9
:1009100092E028960FB6F894DEBF0FBECDBFDF91F0
:10092000CF910C94490441E00E94490481E090E099
:1009300008958F929F92AF92BF920F931F93CF9380
:10094000DF93CDB7DEB7A1970FB6F894DEBF0FBE29
:10095000CDBF19A2423008F44AE08E010F5D1F4F4F
:10096000842E912CB12CA12CA50194010E94110D73
:10097000E62FB901CA01EA3044F5E05DD801EE93F3
:100980008D01232B242B252B79F790E080E0109705
:1009900069F0FD0101900020E9F73197AF014A1B92
:1009A0005B0BBD0181EC92E00E944D01A1960FB658
:1009B000F894DEBF0FBECDBFDF91CF911F910F9195
:1009C000BF90AF909F908F900895E95CD7CFCF9262
:1009D000DF92EF92FF926C01990FEE08FF08F7FE8D
:1009E00016C041E06DE281EC92E00E944904662766
:1009F0007727CB016C197D098E099F094AE00E9477
:100A000099040196FF90EF90DF90CF9008954AE00F
:100A1000C701B601FF90EF90DF90CF900C9499043E
:100A2000AF92BF92DF92EF92FF920F931F93CF93FB
:100A3000DF93D42E122F861B970BBC01990F880BC6
:100A4000990B0E94A60B26E636E646EE5FE30E946F
:100A5000690C0E94DB0CEB0161E01C161D060CF416
:100A600060E0812F0E94A70010E000E0AA24BB24D0
:100A7000AC1ABD0A8BE3E82E8CE9F82ECE01D7FD27
:100A8000C50108171907C4F461E080E00E94600402
:100A9000C8010E94E70461E08D2D0E94A700C701F4
:100AA0000197F1F760E08D2D0E94A700C701019723
:100AB000F1F70F5F1F4FE2CFDF91CF911F910F91A1
:100AC000FF90EF90DF90BF90AF900895FC01808180
:100AD0009181009711F00C94D50D0895CF93DF9379
:100AE0002091BF023091C002232B89F0FC01C091FC
:100AF000BB02D091BC0260817181CE010E942B0F9C
:100B0000009729F08C1B9D0BDF91CF9108958FEFFB
:100B10009FEFFACF0F931F93CF93DF938C01EB01DD
:100B2000FC01808191810097E1F0688179816115F4
:100B30007105A9F0428153812C813D8142175307F1
:100B400070F00E94240F8C819D81F801958384832D
:100B50001D821C82DF91CF911F910F9108950E94F9
:100B6000D50D88819981F801918380838A819B8149
:100B7000938382838C819D819583848319821882DB
:100B80001B821A82E5CFFC0180819181009711F0D0
:100B90000C94680B60E070E0CB0108950F931F93F5
:100BA000CF93DF93EC0188819981009759F02A81D6
:100BB0003B812617370730F081E0DF91CF911F91FD
:100BC0000F9108958B016F5F7F4F0E945E0E00971B
:100BD00059F0998388831B830A832C813D81232BC1
:100BE00059F7FC011082E8CF80E0E7CFEF92FF9247
:100BF0000F931F93CF93DF93EC017B018A01BA011E
:100C00000E94CE0528813981811114C0211531053A
:100C100019F0C9010E94D50D198218821D821C820B
:100C20001B821A82CE01DF91CF911F910F91FF900D
:100C3000EF9008951D830C83B701C9010E94240F12
:100C4000F1CFFC011182108213821282158214826C
:100C5000FB0101900020E9F73197AF01461B570BCC
:100C60000C94F605CF92DF92EF92FF920F931F93B1
:100C7000CF93DF93EC016B017A014617570720F4FD
:100C80008D2D6A01E62EF82E6FE371E0CE010E94F1
:100C900021060091BF021091C002C016D10640F596
:100CA000E016F10608F48701E091BB02F091BC0266
:100CB000E00FF11FF08010826091BB027091BC02C6
:100CC0006C0D7D1D61157105E9F0FB01019000209F
:100CD000E9F73197AF01461B570BCE010E94F6058D
:100CE0008091BB029091BC02080F191FF801F0829D
:100CF000CE01DF91CF911F910F91FF90EF90DF9088
:100D0000CF90089588819981009711F00E94D50DA8
:100D1000198218821D821C821B821A82E1CF85ED06
:100D20008093BC008091890190918A01A0918B01F0
:100D3000B0918C010796A11DB11D23E0B695A79532
:100D4000979587952A95D1F72091BC0024FD03C083
:100D50001092D20108954091890150918A016091C9
:100D60008B0170918C01452B462B472B69F3009723
:100D7000A105B10541F02AE22A95F1F700C00197DB
:100D8000A109B109E1CF809188010C949F021F92C3
:100D90000F920FB60F9211242F933F938F939F932F
:100DA000AF93BF9380910A0290910B02A0910C0225
:100DB000B0910D023091090223E0230F2D3758F531
:100DC0000196A11DB11D2093090280930A02909300
:100DD0000B02A0930C02B0930D0280910E02909131
:100DE0000F02A0911002B09111020196A11DB11D38
:100DF00080930E0290930F02A0931002B093110201
:100E0000BF91AF919F918F913F912F910F900FBE06
:100E10000F901F90189526E8230F0296A11DB11D73
:100E2000D2CF1F920F920FB60F9211242F933F93A0
:100E30004F935F936F937F938F939F93AF93BF93E2
:100E4000EF93FF9382E192E00E94CB01FF91EF913B
:100E5000BF91AF919F918F917F916F915F914F91D2
:100E60003F912F910F900FBE0F901F9018951F92DA
:100E70000F920FB60F9211242F938F939F93EF939E
:100E8000FF93E0912202F09123028081E0912802F9
:100E9000F091290282FD1BC0908180912B028F5F0F
:100EA0008F7320912C02821741F0E0912B02F0E029
:100EB000EE5EFD4F958F80932B02FF91EF919F91F6
:100EC0008F912F910F900FBE0F901F9018958081DA
:100ED000F4CF1F920F920FB60F9211242F933F93CE
:100EE0004F935F936F937F938F939F93AF93BF9332
:100EF000EF93FF938091B900887F803609F44AC050
:100F0000F0F5883209F4A7C018F5803109F49BC0C8
:100F1000B8F4882309F4F9C0883009F494C0FF912B
:100F2000EF91BF91AF919F918F917F916F915F9161
:100F30004F913F912F910F900FBE0F901F901895DA
:100F4000883109F488C0803251F78093D10114C0F0
:100F5000803409F49DC040F48033B9F38833F9F646
:100F60008093D10185ECB0C0803509F485C0883507
:100F700009F496C0883499F60E948F06D0CF88393C
:100F800009F48CC038F5883729F050F4883611F010
:100F9000803729F683E08093D2011092D00157C0A8
:100FA000883809F47BC0803919F0803809F0B7CF50
:100FB0008091D001803208F071C0E091D00181E0D1
:100FC0008E0F8093D0018091BB00F0E0E055FE4F82
:100FD00080833DC0803B39F0E0F4803A09F479C069
:100FE000883A09F09CCF84E08093D2011092AF013F
:100FF0001092AE01E091FA01F091FB010995809108
:10100000AE0181110FC081E08093AE0110928E017C
:1010100009C0803C09F4A6CF883C09F4A3CF883BE3
:1010200009F07DCFE091AF0181E08E0F8093AF0199
:10103000F0E0E257FE4F80818093BB009091AF01BA
:101040008091AE0129C08091F7018093BB0085ECAF
:101050008093BC0064CF9091F6018091F5019817C0
:1010600058F5E091F60181E08E0F8093F601F0E0F3
:10107000EB52FE4F8081E9CFE091F60181E08E0FC7
:101080008093F6018091BB00F0E0EB52FE4F80832D
:101090009091F6018091F5019817C8F285E8D8CFB4
:1010A000E091F60181E08E0F8093F6018091BB0004
:1010B000F0E0EB52FE4F80838091D40181115CCF30
:1010C00081E08093D30184EA8093BC001092D20126
:1010D00026CF85EC8093BC001092D2018091D00184
:1010E000803230F4E091D001F0E0E055FE4F108204
:1010F0006091D00170E0E091F801F091F90180EB8E
:1011000091E009951092D0010ACF1092D10134CF0D
:10111000E2E1F2E01382128288EE93E0A0E0B0E018
:1011200084839583A683B78322E131E031832083D2
:1011300025EC30E03587248724EC30E0378726879C
:1011400020EC30E0318B208B21EC30E0338B228B94
:1011500022EC30E0358B248B26EC30E0378B268B6D
:10116000118E128E138E148EEFEAF2E01382128229
:1011700084839583A683B78384E291E091838083FF
:10118000E1ECF2E01382128286E391E091838083A6
:1011900087E2848380E1818782E0828713866FE320
:1011A00071E08BEB92E00C942106CF93DF93CDB7E7
:1011B000DEB76E970FB6F894DEBF0FBECDBF789442
:1011C00084B5826084BD84B5816084BD85B582604C
:1011D00085BD85B5816085BD80916E0081608093FD
:1011E0006E00109281008091810082608093810066
:1011F0008091810081608093810080918000816076
:10120000809380008091B10084608093B1008091D0
:10121000B00081608093B00080917A0084608093F8
:101220007A0080917A00826080937A0080917A00BF
:10123000816080937A0080917A00806880937A0040
:101240001092C100E0912202F091230282E080839B
:10125000E0911E02F0911F021082E0912002F091B5
:1012600021028FEC808310922A02E0912602F091F5
:10127000270286E08083E0912402F091250280819C
:1012800080618083E0912402F09125028081886052
:101290008083E0912402F091250280818068808320
:1012A000E0912402F091250280818F7D808310924D
:1012B000FF011092FE011092FD011092FC010E94AC
:1012C00081028AE491E09093FB018093FA018BE420
:1012D00091E09093F9018093F8011092C6028091F9
:1012E000CB02823018F098E09093C6028093C90236
:1012F00062E370E080E090E00E9418016091CC020F
:1013000081EC92E00E94460368EE73E080E090E09A
:101310000E94180160E381EC92E00E9430040BE42B
:1013200016E4C8010197F1F760E381EC92E00E94B6
:101330003004C8010197F1F760E381EC92E00E946C
:10134000300483E592E00197F1F760E281EC92E0EE
:101350000E9430046091C602606240E081EC92E03D
:101360000E94490484E08093C70240E06CE081EC75
:1013700092E00E94490440E061E081EC92E00E942A
:1013800049040BE31FE1C8010197F1F782E0809364
:10139000C80240E066E081EC92E00E94490440E02F
:1013A00062E081EC92E00E944904C8010197F1F7E4
:1013B00088E08093CC0260E081EC92E00E944603DA
:1013C00088E00E94880082E00E94880085E00E94F8
:1013D000880083E00E94880086E00E94880060E028
:1013E00088E00E94A70080E0E82E80E0F82E82E1ED
:1013F00092E00E94AB01181619065CF582E192E0BA
:101400000E948901809308028A3019F189831A8227
:101410000091BF021091C0020F5F1F4FB8018BEB0C
:1014200092E00E94CE05882311F32091BB023091F7
:10143000BC028091BF029091C002BE016F5F7F4FDE
:10144000820F931F0E94240F1093C0020093BF02CB
:10145000CECF809108028A3009F0EAC06FE371E0D4
:10146000CE0149960E9421066FE371E0CE014396BA
:101470000E9421066FE371E0CE010D960E942106C5
:101480006FE371E0CE0107960E9421066EE371E0E2
:10149000CE0101960E942106CE0101960E946E05A2
:1014A000D82E80930302CE0101960E94660560E467
:1014B00071E0CE0101960E942106CE0101960E94A4
:1014C0006E05082F80930202CE0101960E946605E8
:1014D00062E471E0CE0101960E942106CE010196E0
:1014E0000E946E05182F80930102CE0101960E9482
:1014F000660564E471E0CE0101960E942106CE01EA
:1015000001960E946E05C82E80930002CE010196BE
:101510000E946605D7FC1DC04D2D0D2C000C550BEF
:1015200070E060E0CE0101960E943206BE016F5F5E
:101530007F4FCE0149960E948A05CE0101960E94F6
:101540006605CE0149960E94C30570930702609319
:10155000060207FD20C06D2DDD0C770B6F5F7F4FFE
:10156000402F002E000C550BCE0101960E94320632
:10157000BE016F5F7F4FCE0143960E948A05CE0168
:1015800001960E946605CE0143960E94C3057093A2
:1015900005026093040217FD18C0602F000F770B3F
:1015A0006F5F7F4F412F012E000C550BCE0101962E
:1015B0000E943206BE016F5F7F4FCE010D960E94E2
:1015C0008A05CE0101960E946605C7FC17C04C2D06
:1015D000CC0C550B612F110F770B6F5F7F4FCE0136
:1015E00001960E943206BE016F5F7F4FCE010796C3
:1015F0000E948A05CE0101960E946605CE010796DB
:101600000E946605CE010D960E946605CE014396A6
:101610000E946605CE0149960E9466051092080256
:1016200050E040E06FE371E08BEB92E00E94F60542
:1016300060E080E00E9460048091060290910702C1
:101640000E94E70461E080E00E94600490E080E096
:101650000E94E70460E085E00E946004809104023B
:10166000909105020E94E70461E085E00E94600419
:1016700090E080E00E94E7048091060290910702CA
:10168000009741F025E030E042E050E070E060E09B
:101690000E9410058091040290910502009741F08C
:1016A00026E030E043E050E070E060E00E9410058A
:1016B000E114F10409F49BCE0E94B701882309F4D8
:1016C00096CE0E94000093CE8BEB92E00C946605C0
:1016D0001F93FC0199278827BC01E89411911032CF
:1016E000E9F3193010F01E30C8F31B3251F01D32EF
:1016F00049F4689406C00E948F0B610F711D811D13
:10170000911D119110531A30B0F33EF490958095CD
:10171000709561957F4F8F4F9F4F1F910895592F5F
:10172000482F372F262F660F771F881F991F660FA8
:10173000771F881F991F620F731F841F951F660FE5
:10174000771F881F991F0895E89409C097FB3EF4FE
:1017500090958095709561957F4F8F4F9F4F9923FE
:10176000A9F0F92F96E9BB279395F695879577957C
:101770006795B795F111F8CFFAF4BB0F11F460FF3C
:101780001BC06F5F7F4F8F4F9F4F16C0882311F094
:1017900096E911C0772321F09EE8872F762F05C0A8
:1017A000662371F096E8862F70E060E02AF09A9543
:1017B000660F771F881FDAF7880F9695879597F938
:1017C000089597F99F6780E870E060E008959FEFC3
:1017D00080EC089500240A941616170618060906C8
:1017E000089500240A941216130614060506089597
:1017F000092E0394000C11F4882352F0BB0F40F41F
:10180000BF2B11F460FF04C06F5F7F4F8F4F9F4F5E
:10181000089557FD9058440F551F59F05F3F71F0E0
:101820004795880F97FB991F61F09F3F79F0879547
:101830000895121613061406551FF2CF4695F1DFD0
:1018400008C0161617061806991FF1CF8695710560
:10185000610508940895E894BB2766277727CB0194
:1018600097F908952F923F924F925F926F927F92D5
:101870008F929F92AF92BF92CF92DF92EF92FF92A0
:101880000F931F93CF93DF93CDB7DEB7CA1BDB0B4C
:101890000FB6F894DEBF0FBECDBF09942A883988F1
:1018A00048885F846E847D848C849B84AA84B984F8
:1018B000C884DF80EE80FD800C811B81AA81B98104
:1018C000CE0FD11D0FB6F894DEBF0FBECDBFED0118
:1018D00008950E947D0C0C94F80B0E94F10B58F0B7
:1018E0000E94EA0B40F029F45F3F29F00C94E10BD1
:1018F00051110C942C0C0C94E70B0E94090C68F30A
:101900009923B1F3552391F3951B550BBB27AA27B8
:1019100062177307840738F09F5F5F4F220F331FF2
:10192000441FAA1FA9F335D00E2E3AF0E0E832D0BA
:1019300091505040E695001CCAF72BD0FE2F29D0BD
:10194000660F771F881FBB1F261737074807AB078F
:10195000B0E809F0BB0B802DBF01FF2793585F4F04
:101960003AF09E3F510578F00C94E10B0C942C0C4E
:101970005F3FE4F3983ED4F3869577956795B795E6
:10198000F7959F5FC9F7880F911D9695879597F9F1
:101990000895E1E0660F771F881FBB1F621773076A
:1019A0008407BA0720F0621B730B840BBA0BEE1F7F
:1019B00088F7E09508950E94E20C6894B1110C94A8
:1019C0002C0C08950E94110C88F09F5798F0B92FA5
:1019D0009927B751B0F0E1F0660F771F881F991F64
:1019E0001AF0BA95C9F714C0B13091F00E942B0CCF
:1019F000B1E008950C942B0C672F782F8827B85FDF
:101A000039F0B93FCCF3869577956795B395D9F7BB
:101A10003EF490958095709561957F4F8F4F9F4FC5
:101A20000895A1E21A2EAA1BBB1BFD010DC0AA1F1F
:101A3000BB1FEE1FFF1FA217B307E407F50720F037
:101A4000A21BB30BE40BF50B661F771F881F991FB2
:101A50001A9469F760957095809590959B01AC01FB
:101A6000BD01CF010895EE0FFF1F0590F491E02D09
:101A700009940F931F93CF93DF938230910510F455
:101A800082E090E0E091CF02F091D00230E020E0DF
:101A9000B0E0A0E0309799F42115310509F44AC06F
:101AA000281B390B24303105D8F58A819B816115BB
:101AB000710589F1FB0193838283FE0111C040818E
:101AC00051810281138148175907E0F048175907DF
:101AD00099F4109761F012960C93129713961C9339
:101AE0003296CF01DF91CF911F910F91089500930E
:101AF000CF021093D002F4CF2115310551F04217D7
:101B0000530738F0A901DB019A01BD01DF01F8019B
:101B1000C1CFEF01F9CF9093D0028093CF02CDCF08
:101B2000FE01E20FF31F8193919322503109398313
:101B30002883D7CF2091CD023091CE02232B41F4C0
:101B400020910201309103013093CE022093CD0207
:101B500020910001309101012115310541F42DB78B
:101B60003EB74091040150910501241B350BE091D3
:101B7000CD02F091CE02E217F307A0F42E1B3F0B2B
:101B80002817390778F0AC014E5F5F4F24173507EF
:101B900048F04E0F5F1F5093CE024093CD028193C9
:101BA00091939FCFF0E0E0E09CCFCF93DF9300973D
:101BB000E9F0FC01329713821282A091CF02B0911A
:101BC000D002ED0130E020E01097A1F420813181B6
:101BD000820F931F2091CD023091CE022817390732
:101BE00009F061C0F093CE02E093CD02DF91CF9176
:101BF0000895EA01CE17DF07E8F54A815B819E016F
:101C000041155105B1F7E901FB83EA8349915991E7
:101C1000C40FD51FEC17FD0761F4808191810296F6
:101C2000840F951FE90199838883828193819B8327
:101C30008A83F0E0E0E012968D919C9113970097D3
:101C4000B9F52D913C911197CD010296820F931F0A
:101C50002091CD023091CE022817390739F63097FE
:101C600051F51092D0021092CF02B093CE02A09301
:101C7000CD02BCCFD383C28340815181840F951F95
:101C8000C817D90761F44E5F5F4F88819981480F6B
:101C9000591F518340838A819B81938382832115BD
:101CA000310509F0B0CFF093D002E093CF029ECF80
:101CB000FD01DC01C0CF13821282D7CFB0E0A0E0DB
:101CC000E4E6FEE00C94340C8C01009751F4CB0157
:101CD0000E94390D8C01C801CDB7DEB7E0E10C944C
:101CE000500CFC01E60FF71F9C0122503109E2174E
:101CF000F30708F49DC0D901CD91DC911197C61767
:101D0000D70798F0C530D10530F3CE010497861778
:101D1000970708F3C61BD70B2297C193D1936D93F6
:101D20007C93CF010E94D50DD6CF5B01AC1ABD0AC2
:101D30004C018C0E9D1EA091CF02B091D002512C6F
:101D4000412CF12CE12C109731F58091CD0290912E
:101D5000CE028815990509F05CC04616570608F0B2
:101D600058C08091000190910101009741F48DB716
:101D70009EB74091040150910501841B950BE81713
:101D8000F90708F055C0F093CE02E093CD02F901B7
:101D900071836083A0CF8D919C91119712966C9066
:101DA000129713967C901397A815B90559F56C01F5
:101DB00042E0C40ED11CCA14DB0420F1AC014A1964
:101DC0005B09DA011296159780F062827382518363
:101DD0004083D9016D937C93E114F10471F0D70134
:101DE0001396FC93EE93129776CF22968C0F9D1F3D
:101DF000F90191838083F301EFCFF093D002E09358
:101E0000CF0269CF4816590608F42C017D01D30191
:101E10009ACFCB010E94390D7C01009749F0AE01A9
:101E2000B8010E941B0FC8010E94D50D870153CF36
:101E300010E000E050CFFB01DC0102C001900D92E8
:101E400041505040D8F70895FB01DC0101900D92FC
:101E50000020E1F70895FB0151915523A9F0BF013E
:101E6000DC014D9145174111E1F759F4CD01019085
:101E7000002049F04D9140154111C9F3FB0141117A
:101E8000EFCF81E090E00197089510E0CDE5D0E03C
:101E900004C0FE010E94330D2196CE35D107C9F74B
:101EA000F894FFCF0000D102800000004000140031
:101EB000540000000000ED014D017A013A02AB012F
:101EC00089019D01000000001703EA022D04C002F1
:101ED000E302D002C1020000000093044D012D0472
:0A1EE0004C014100420043004400A1
:107E0000112484B714BE81FFF0D085E080938100F7
:107E100082E08093C00088E18093C10086E0809377
:107E2000C20080E18093C4008EE0C9D0259A86E02C
:107E300020E33CEF91E0309385002093840096BBD3
:107E4000B09BFECF1D9AA8958150A9F7CC24DD24C4
:107E500088248394B5E0AB2EA1E19A2EF3E0BF2EE7
:107E6000A2D0813461F49FD0082FAFD0023811F036
:107E7000013811F484E001C083E08DD089C08234E0
:107E800011F484E103C0853419F485E0A6D080C0E4
:107E9000853579F488D0E82EFF2485D0082F10E0AE
:107EA000102F00270E291F29000F111F8ED06801E7
:107EB0006FC0863521F484E090D080E0DECF843638
:107EC00009F040C070D06FD0082F6DD080E0C81688
:107ED00080E7D80618F4F601B7BEE895C0E0D1E017
:107EE00062D089930C17E1F7F0E0CF16F0E7DF06D8
:107EF00018F0F601B7BEE89568D007B600FCFDCFD4
:107F0000A601A0E0B1E02C9130E011968C91119780
:107F100090E0982F8827822B932B1296FA010C0160
:107F200087BEE89511244E5F5F4FF1E0A038BF0790
:107F300051F7F601A7BEE89507B600FCFDCF97BE46
:107F4000E89526C08437B1F42ED02DD0F82E2BD052
:107F50003CD0F601EF2C8F010F5F1F4F84911BD097
:107F6000EA94F801C1F70894C11CD11CFA94CF0C13
:107F7000D11C0EC0853739F428D08EE10CD085E9AC
:107F80000AD08FE07ACF813511F488E018D01DD067
:107F900080E101D065CF982F8091C00085FFFCCF94
:107FA0009093C60008958091C00087FFFCCF809118
:107FB000C00084FD01C0A8958091C6000895E0E648
:107FC000F0E098E1908380830895EDDF803219F02E
:107FD00088E0F5DFFFCF84E1DECF1F93182FE3DFCA
:107FE0001150E9F7F2DF1F91089580E0E8DFEE27F6
:047FF000FF270994CA
:027FFE00040479
:00000001FF
