:100000000C945E000C9486000C9486000C94860080
:100010000C9486000C9486000C9486000C94860048
:100020000C9486000C9486000C9486000C94860038
:100030000C9486000C9486000C9486000C94860028
:100040000C949F050C9486000C940F060C94E90503
:100050000C9486000C9486000C9486000C94860008
:100060000C9441060C948600000000080002010078
:100070000003040700000000000000000000000072
:10008000250028002B0000000000240027002A0083
:10009000040404040404040402020202020203032E
:1000A0000303030301020408102040800102040836
:1000B00010200102040810206007D10A11241FBE7D
:1000C000CFEFD8E0DEBFCDBF22E0ACE5B1E001C0AC
:1000D0001D92AF3EB207E1F711E0A0E0B1E0E0E62B
:1000E000FDE102C005900D92AC35B107D9F710E0E3
:1000F000CDE5D0E004C02197FE010E94A00CCC35D4
:10010000D107C9F70E94B6070C94A30E0C94000007
:1001100090E0FC01EC55FF4F249180579F4FFC016C
:100120008491882399F090E0880F991FFC01EA5789
:10013000FF4FA591B491FC01E458FF4F8591949134
:100140008FB7F894EC91E22BEC938FBF089590E079
:10015000FC01E859FF4F2491FC01EC55FF4F34910D
:10016000FC01E057FF4FE491EE23C9F0222339F060
:10017000233001F1A8F4213019F1223029F1F0E007
:10018000EE0FFF1FE458FF4FA591B4918FB7F8947D
:10019000EC91611126C030953E233C938FBF0895AA
:1001A0002730A9F02830C9F0243049F78091800029
:1001B0008F7D03C0809180008F7780938000DFCF98
:1001C00084B58F7784BDDBCF84B58F7DFBCF8091E5
:1001D000B0008F778093B000D2CF8091B0008F7D38
:1001E000F9CF3E2BDACF3FB7F89480912C02909153
:1001F0002D02A0912E02B0912F0226B5A89B05C01A
:100200002F3F19F00196A11DB11D3FBFBA2FA92F95
:10021000982F8827BC01CD01620F711D811D911D92
:1002200042E0660F771F881F991F4A95D1F70895FE
:100230008F929F92AF92BF92CF92DF92EF92FF92F6
:100240004B015C010E94F3006B017C010E94F300F2
:100250006C197D098E099F09683E734081059105DF
:10026000A8F321E0821A9108A108B10888EEC80E0F
:1002700083E0D81EE11CF11C81149104A104B10497
:1002800029F7FF90EF90DF90CF90BF90AF909F90B5
:100290008F900895089508950895AF92BF92CF92D8
:1002A000DF92EF92FF920F931F93CF93DF936C0136
:1002B0007B018B01040F151FEB015E01AE18BF0817
:1002C000C017D10759F06991D601ED91FC910190C9
:1002D000F081E02DC6010995892B79F7C501DF91E1
:1002E000CF911F910F91FF90EF90DF90CF90BF9033
:1002F000AF900895FC01538D448D252F30E0842F5D
:1003000090E0821B930B541710F0CF96089501973D
:100310000895FC01918D828D981761F0A28DAE0F2A
:10032000BF2FB11D5D968C91928D9F5F9F73928FB1
:1003300090E008958FEF9FEF0895FC01918D828DDD
:10034000981731F0828DE80FF11D858D90E00895AA
:100350008FEF9FEF0895FC01918D228D892F90E002
:10036000805C9F4F821B91098F739927089580E3CA
:1003700092E00E94AB0121E0892B09F420E0822F5A
:10038000089580E090E0892B29F00E94B701811147
:100390000C9400000895FC01A48DA80FB92FB11D85
:1003A000A35ABF4F2C91848D90E001968F739927AB
:1003B000848FA689B7892C93A089B1898C91837089
:1003C00080648C93938D848D981306C00288F38982
:1003D000E02D80818F7D80830895EF92FF920F93AF
:1003E0001F93CF93DF93EC0181E0888F9B8D8C8DE1
:1003F00098131AC0E889F989808185FF15C09FB7D5
:10040000F894EE89FF896083E889F9898081837097
:10041000806480839FBF81E090E0DF91CF911F9146
:100420000F91FF90EF900895F62E0B8D10E00F5F67
:100430001F4F0F731127E02E8C8D8E110CC00FB63D
:1004400007FCFACFE889F989808185FFF5CFCE01D5
:100450000E94CB01F1CFEB8DEC0FFD2FF11DE35A84
:10046000FF4FF0829FB7F8940B8FEA89FB89808158
:100470008062CFCFCF93DF93EC01888D8823B9F0D2
:10048000AA89BB89E889F9898C9185FD03C080819F
:1004900086FD0DC00FB607FCF7CF8C9185FFF2CF1C
:1004A000808185FFEDCFCE010E94CB01E9CFDF91A6
:1004B000CF9108952091C401260F3327331F213295
:1004C0003105ECF42091E801FC0190E080E024305B
:1004D00069F082E00895A091C4012191AC014C55CE
:1004E0005E4FA40FB52FB11D2C930196861798F37C
:1004F0008091C401680F6093C40180E0089581E099
:1005000008951092E80181E08093EA011092E901D8
:1005100061E082E10E94A70061E083E10E94A70000
:10052000E9EBF0E080818E7F808380818D7F808306
:1005300088E48093B80085E48093BC000895CF934D
:10054000DF9391E09093A3018823B9F0C091B800A4
:10055000D091BA008091BC008A7B8093BC0060E09F
:1005600082E10E94A70060E083E10E94A7000E9450
:100570008102D093BA00C093B800DF91CF91089563
:100580000895E091150280911402E81730F4F0E02C
:10059000E258FE4F808190E008958FEF9FEF08951D
:1005A00090911502809114022FEF3FEF981748F4B5
:1005B000E92FF0E0E258FE4F208130E09F5F9093FA
:1005C0001502C90108958091140290911502891BAA
:1005D000990B0895CF92DF92EF92FF920F931F93A2
:1005E000CF93DF937C01CB018A0120917D012223EF
:1005F00089F0EB016B01C40ED51ECC15DD0569F049
:100600006991D701ED91FC910190F081E02DC70136
:100610000995F3CF642F0E945A02C801DF91CF9150
:100620001F910F91FF90EF90DF90CF900895CF939F
:10063000DF931F92CDB7DEB7698320917D0122231E
:10064000F9F020911202203258F021E030E0FC0154
:100650003383228390E080E00F90DF91CF91089563
:1006600080911302E82FF0E0E35AFE4F99819083C6
:100670008F5F809313028093120281E090E0ECCFB1
:1006800061E0CE0101960E945A02F7CFCF92DF922D
:10069000EF92FF920F931F93CF93DF93FC01C481DE
:1006A00021E020937D01C0935C011092130210920F
:1006B00012028385682B8DEC92E00E941703D09183
:1006C0001202D13208F092C00E94F3006B017C014B
:1006D0008091E801811165C082E08093E80181E0AA
:1006E0008093EA018FEF8093E70110920C02D09380
:1006F0000B02ADE5B1E0EBEEF1E080E0D81385C090
:1007000010920D0280910D02CC0FC82BC0930D02E8
:100710008091E901813009F07CC01092E9010E94CA
:10072000F3006B017C0180910D028093BB008091EE
:100730009F019091A001A091A101B091A201892BEC
:100740008A2B8B2B99F00E94F30000919F0110914E
:10075000A0012091A1013091A2016C197D098E099F
:100760009F090617170728073907E0F18091BC0099
:1007700083FDD9CF85EC8093BC000E94F3006B0110
:100780007C018091E801823009F445C08091E70145
:100790008F3F61F18091E701803241F18091E70163
:1007A00025C080919F019091A001A091A101B091DD
:1007B000A201892B8A2B8B2B09F48ACF0E94F3008C
:1007C00000919F011091A0012091A1013091A201FF
:1007D0006C197D098E099F09061717072807390725
:1007E00008F076CF80919E010E949F021092130222
:1007F0001092120210927D01DF91CF911F910F9103
:10080000FF90EF90DF90CF9008959D9191938F5F2F
:1008100075CF85EEB0CF80919F019091A001A091FE
:10082000A101B091A201892B8A2B8B2B09F4A9CFAE
:100830000E94F30000919F011091A0012091A1015D
:100840003091A2016C197D098E099F0906171707BF
:100850002807390708F095CFC5CF90E080E00895CC
:100860000F931F93CF938C01C62F0E9446036C2FCA
:100870006460C8010E9446036C2F6B7FC8010E9410
:10088000460383EC90E00197F1F7CF911F910F9110
:1008900008950F931F93CF93DF938C01D62FC42F0E
:1008A000607F642B0E94300480E1D89FB001112446
:1008B0006C2BC801DF91CF911F910F910C943004E4
:1008C00041E00E94490481E090E00895CF93DF93D6
:1008D000CDB7DEB728970FB6F894DEBF0FBECDBFF9
:1008E00098E0E6E0F1E0DE01119601900D929A9514
:1008F000E1F79091E702961708F46FEF262F30E0AA
:10090000220F331F41E050E04C0F5D1F240F351FB5
:10091000F9016081680F606840E08FED92E02896F1
:100920000FB6F894DEBF0FBECDBFDF91CF910C9410
:1009300049048F929F92AF92BF920F931F93CF93D0
:10094000DF93CDB7DEB7A1970FB6F894DEBF0FBE29
:10095000CDBF19A2423008F44AE08E010F5D1F4F4F
:10096000842E912CB12CA12CA50194010E947E0C07
:10097000E62FB901CA01EA3044F5E05DD801EE93F3
:100980008D01232B242B252B79F790E080E0109705
:1009900069F0FD0101900020E9F73197AF014A1B92
:1009A0005B0BBD018FED92E00E944D01A1960FB649
:1009B000F894DEBF0FBECDBFDF91CF911F910F9195
:1009C000BF90AF909F908F900895E95CD7CFCF9262
:1009D000DF92EF92FF9297FF18C06B017C0141E01C
:1009E0006DE28FED92E00E94490466277727CB01E4
:1009F0006C197D098E099F094AE00E9499040196AD
:100A0000FF90EF90DF90CF9008954AE0FF90EF9035
:100A1000DF90CF900C949904FC0180819181009724
:100A200011F00C94420D08950F931F93CF93DF9311
:100A3000EC0188819981009759F02A813B81261722
:100A4000370730F081E0DF91CF911F910F9108952A
:100A50008B016F5F7F4F0E94CB0D009759F09983F8
:100A600088831B830A832C813D81232B59F7FC014A
:100A70001082E8CF80E0E7CFEF92FF920F931F93B1
:100A8000CF93DF93EC017B018A01BA010E94140528
:100A900028813981811114C02115310519F0C9014E
:100AA0000E94420D198218821D821C821B821A82AA
:100AB000CE01DF91CF911F910F91FF90EF9008959C
:100AC0001D830C83B701C9010E949C0EF1CF85EDF7
:100AD0008093BC0080919F019091A001A091A10101
:100AE000B091A2010796A11DB11D23E0B695A7956F
:100AF000979587952A95D1F72091BC0024FD03C0D6
:100B00001092E801089540919F015091A0016091D9
:100B1000A1017091A201452B462B472B69F3009749
:100B2000A105B10541F02AE22A95F1F700C001972D
:100B3000A109B109E1CF80919E010C949F021F92FF
:100B40000F920FB60F9211242F933F938F939F9381
:100B5000AF93BF938091280290912902A0912A021D
:100B6000B0912B023091270223E0230F2D3758F547
:100B70000196A11DB11D2093270280932802909316
:100B80002902A0932A02B0932B0280912C0290910B
:100B90002D02A0912E02B0912F020196A11DB11D30
:100BA00080932C0290932D02A0932E02B0932F02DB
:100BB000BF91AF919F918F913F912F910F900FBE59
:100BC0000F901F90189526E8230F0296A11DB11DC6
:100BD000D2CF1F920F920FB60F9211242F933F93F3
:100BE0004F935F936F937F938F939F93AF93BF9335
:100BF000EF93FF9380E392E00E94CB01FF91EF918E
:100C0000BF91AF919F918F917F916F915F914F9124
:100C10003F912F910F900FBE0F901F9018951F922C
:100C20000F920FB60F9211242F938F939F93EF93F0
:100C3000FF93E0914002F09141028081E0914602F1
:100C4000F091470282FD1BC09081809149028F5F25
:100C50008F7320914A02821741F0E0914902F0E03F
:100C6000E05DFD4F958F80934902FF91EF919F9139
:100C70008F912F910F900FBE0F901F90189580812C
:100C8000F4CF1F920F920FB60F9211242F933F9320
:100C90004F935F936F937F938F939F93AF93BF9384
:100CA000EF93FF938091B900887F803609F44AC0A2
:100CB000F0F5883209F4A7C018F5803109F49BC01B
:100CC000B8F4882309F4F9C0883009F494C0FF917E
:100CD000EF91BF91AF919F918F917F916F915F91B4
:100CE0004F913F912F910F900FBE0F901F9018952D
:100CF000883109F488C0803251F78093E70114C02D
:100D0000803409F49DC040F48033B9F38833F9F698
:100D10008093E70185ECB0C0803509F485C0883543
:100D200009F496C0883499F60E946705D0CF8839B7
:100D300009F48CC038F5883729F050F4883611F062
:100D4000803729F683E08093E8011092E60157C0CE
:100D5000883809F47BC0803919F0803809F0B7CFA2
:100D60008091E601803208F071C0E091E60181E0F7
:100D70008E0F8093E6018091BB00F0E0EA53FE4FB6
:100D800080833DC0803B39F0E0F4803A09F479C0BB
:100D9000883A09F09CCF84E08093E8011092C50165
:100DA0001092C401E0911002F09111020995809116
:100DB000C40181110FC081E08093C4011092A4018D
:100DC00009C0803C09F4A6CF883C09F4A3CF883B36
:100DD00009F07DCFE091C50181E08E0F8093C501C0
:100DE000F0E0EC55FE4F80818093BB009091C501EF
:100DF0008091C40129C080910D028093BB0085ECD5
:100E00008093BC0064CF90910C0280910B029817E4
:100E100058F5E0910C0281E08E0F80930C02F0E017
:100E2000E551FE4F8081E9CFE0910C0281E08E0F09
:100E300080930C028091BB00F0E0E551FE4F80836F
:100E400090910C0280910B029817C8F285E8D8CFD8
:100E5000E0910C0281E08E0F80930C028091BB0028
:100E6000F0E0E551FE4F80838091EA0181115CCF73
:100E700081E08093E90184EA8093BC001092E8014C
:100E800026CF85EC8093BC001092E8018091E601AA
:100E9000803230F4E091E601F0E0EA53FE4F108238
:100EA0006091E60170E0E0910E02F0910F0286EC95
:100EB00091E009951092E6010ACF1092E70134CF34
:100EC000E0E3F2E01382128288EE93E0A0E0B0E06B
:100ED00084839583A683B7832EE231E03183208318
:100EE00025EC30E03587248724EC30E037872687EF
:100EF00020EC30E0318B208B21EC30E0338B228BE7
:100F000022EC30E0358B248B26EC30E0378B268BBF
:100F1000118E128E138E148EEDECF2E0138212827B
:100F200084839583A683B78380E491E09183808353
:100F3000EFEDF2E01382128282E591E091838083EB
:100F400087E2848380E1818782E082871386E9EDEE
:100F5000F2E011821082138212821582148250E014
:100F600040E06AE571E0CF010C943C05CF93DF933C
:100F7000CDB7DEB769970FB6F894DEBF0FBECDBF11
:100F8000789484B5826084BD84B5816084BD85B564
:100F9000826085BD85B5816085BD80916E00816070
:100FA00080936E0010928100809181008260809316
:100FB0008100809181008160809381008091800018
:100FC0008160809380008091B10084608093B10043
:100FD0008091B00081608093B00080917A0084603D
:100FE00080937A0080917A00826080937A00809169
:100FF0007A00816080937A0080917A008068809383
:101000007A001092C100E0914002F091410282E02A
:101010008083E0913C02F0913D021082E0913E021B
:10102000F0913F028FEC808310924802E0914402DD
:10103000F091450286E08083E0914202F091430204
:10104000808180618083E0914202F091430280813F
:1010500088608083E0914202F09143028081806841
:101060008083E0914202F091430280818F7D8083F2
:101070001092150210921402109213021092120292
:101080000E9481028AE491E0909311028093100201
:101090008BE491E090930F0280930E021092E40291
:1010A0008091E902823018F098E09093E4028093F6
:1010B000E70262E370E080E090E00E941801609136
:1010C000EA028FED92E00E94460368EE73E080E052
:1010D00090E00E94180160E38FED92E00E943004DE
:1010E0000BE416E4C8010197F1F760E38FED92E09D
:1010F0000E943004C8010197F1F760E38FED92E0A0
:101100000E94300483E592E00197F1F760E28FEDF1
:1011100092E00E9430046091E402606240E08FED52
:1011200092E00E94490484E08093E50240E06CE094
:101130008FED92E00E94490440E061E08FED92E083
:101140000E9449040BE31FE1C8010197F1F782E017
:101150008093E60240E066E08FED92E00E94490451
:1011600040E062E08FED92E00E944904C8010197DF
:10117000F1F788E08093EA0260E08FED92E00E9450
:10118000460388E00E94880082E00E94880085E093
:101190000E94880083E00E94880086E00E94880008
:1011A00084E00E94880087E00E9488008BE00E9413
:1011B00088008CE00E94880060E088E00E94A70020
:1011C00022242A94322C80E392E00E94AB0118166C
:1011D00019065CF580E392E00E9489018093260263
:1011E0008A3019F189831A820091DD021091DE02A2
:1011F0000F5F1F4FB80189ED92E00E94140588230C
:1012000011F32091D9023091DA028091DD029091A0
:10121000DE02BE016F5F7F4F820F931F0E949C0E04
:101220001093DE020093DD02CECF809126028A3039
:1012300009F043C0188A1F861A8A198A1C8A1B8AD9
:1012400050E040E06AE571E0CE010F960E943C0557
:101250002EE0422E21E0522ECE0101965C0136E1B5
:10126000632E32E0732E912C812CF20161912F01BB
:101270008091DD029091DE02892B09F090C0F5018A
:1012800031822082FFEF8F1A9F0A22E0A20EB11C4A
:1012900082E0680E711C94E08916910431F7CE014A
:1012A0000F960E940C051092260250E040E06AE57D
:1012B00071E089ED92E00E943C05E6E1F2E0F88FF2
:1012C000EF8B9EE1492E92E0592E10E000E0EF896D
:1012D000F88DC190D190F88FEF8BF20181919191AF
:1012E0002F01C816D90609F411C1F801EE5DFE4FB1
:1012F00080809180F801EE5EFE4F2081298FB6013B
:10130000681B790B072E000C880B990B0E94130B9E
:1013100026E636E646EE5FE30E94D60B0E94480CB6
:101320007B0161E01E141F040CF460E0F801E65E2E
:10133000FE4F80810E94A7003401660C771C660C6A
:10134000771C85E0681A7108B12CA12CEE27FF27C5
:10135000EE19FF09FE8BED8BC701F7FE02C08D89E8
:101360009E89A816B9060CF0CDC061E0898D0E9457
:10137000A700F2E08F16910418F0C3010197F1F76E
:1013800060E0898D0E94A70022E08216910418F087
:10139000C3010197F1F78FEFA81AB80ADDCFE090EB
:1013A000D902F090DA02062E000C770BC7010E94DA
:1013B000910E009709F463CF8C010E191F09F501F6
:1013C0001183008317FD5ECFF12CE12C8114910471
:1013D00051F03297E080F180FFEFEF1AFF0A0E150F
:1013E0001F0508F465C01A8619861C861B861E8692
:1013F0001D8650E040E06AE571E0CE0109960E944A
:101400003C05C090DD02D090DE02EC14FD0450F5E6
:101410000C151D0508F46801E091D902F091DA027B
:10142000EC0DFD1D108110826091D9027091DA02DD
:101430006E0D7F1D6115710509F440C0FB0101901F
:101440000020E9F73197AF01461B570BCE010996F3
:101450000E943C058091D9029091DA02C80ED91EF3
:10146000F60110838F8598890097B9F169857A858F
:101470006115710581F149895A892D853E8542178B
:10148000530748F10E949C0E8D859E859C8B8B8B0B
:101490001E861D86CE0109960E940C058F859889AF
:1014A000009761F10E94D50AF30171836083EACE4F
:1014B0009E2D8F2D7801092F182F95CF89859A851C
:1014C000009711F00E94420D1A8619861E861D860D
:1014D0001C861B86BFCF0E94420D89859A85988BFA
:1014E0008F878B859C859A8B898B8D859E859C8B20
:1014F0008B8B1A8619861C861B86CACF60E070E02B
:10150000CB01D2CFF2013297D182C0820E5F1F4F42
:101510000830110509F0DBCE60E080E00E9466042F
:1015200060911E0270911F02072E000C880B990B10
:101530000E94E70460E084E00E946604609120025B
:1015400070912102072E000C880B990B0E94E70472
:1015500061E080E00E9466046091220270912302A3
:10156000072E000C880B990B0E94E70461E084E0D1
:101570000E9466046091240270912502072E000CDF
:10158000880B990B0E94E704E0E0F0E0EF2B09F4F0
:101590001ACE0E94B701882309F415CE0E940000DC
:1015A00012CE89ED92E00C940C051F93FC01992753
:1015B0008827BC01E89411911032E9F3193010F03A
:1015C0001E30C8F31B3251F01D3249F4689406C036
:1015D0000E94FC0A610F711D811D911D1191105314
:1015E0001A30B0F33EF490958095709561957F4FD9
:1015F0008F4F9F4F1F910895592F482F372F262F18
:10160000660F771F881F991F660F771F881F991F06
:10161000620F731F841F951F660F771F881F991F06
:101620000895E89409C097FB3EF4909580957095D5
:1016300061957F4F8F4F9F4F9923A9F0F92F96E91E
:10164000BB279395F695879577956795B795F11193
:10165000F8CFFAF4BB0F11F460FF1BC06F5F7F4F30
:101660008F4F9F4F16C0882311F096E911C0772342
:1016700021F09EE8872F762F05C0662371F096E84B
:10168000862F70E060E02AF09A95660F771F881F1A
:10169000DAF7880F9695879597F9089597F99F67D8
:1016A00080E870E060E008959FEF80EC08950024EA
:1016B0000A941616170618060906089500240A94B7
:1016C00012161306140605060895092E0394000C3D
:1016D00011F4882352F0BB0F40F4BF2B11F460FFCC
:1016E00004C06F5F7F4F8F4F9F4F089557FD9058F5
:1016F000440F551F59F05F3F71F04795880F97FBD6
:10170000991F61F09F3F79F087950895121613068F
:101710001406551FF2CF4695F1DF08C016161706BE
:101720001806991FF1CF86957105610508940895F3
:10173000E894BB2766277727CB0197F908952F9266
:101740003F924F925F926F927F928F929F92AF9251
:10175000BF92CF92DF92EF92FF920F931F93CF939E
:10176000DF93CDB7DEB7CA1BDB0B0FB6F894DEBF35
:101770000FBECDBF09942A88398848885F846E845B
:101780007D848C849B84AA84B984C884DF80EE80A5
:10179000FD800C811B81AA81B981CE0FD11D0FB6AE
:1017A000F894DEBF0FBECDBFED0108950E94EA0B95
:1017B0000C94650B0E945E0B58F00E94570B40F092
:1017C00029F45F3F29F00C944E0B51110C94990BA6
:1017D0000C94540B0E94760B68F39923B1F35523B4
:1017E00091F3951B550BBB27AA2762177307840734
:1017F00038F09F5F5F4F220F331F441FAA1FA9F3CA
:1018000035D00E2E3AF0E0E832D091505040E695B7
:10181000001CCAF72BD0FE2F29D0660F771F881F18
:10182000BB1F261737074807AB07B0E809F0BB0B0B
:10183000802DBF01FF2793585F4F3AF09E3F51051F
:1018400078F00C944E0B0C94990B5F3FE4F3983EA8
:10185000D4F3869577956795B795F7959F5FC9F708
:10186000880F911D9695879597F90895E1E0660F89
:10187000771F881FBB1F621773078407BA0720F002
:10188000621B730B840BBA0BEE1F88F7E09508956B
:101890000E944F0C6894B1110C94990B08950E940A
:1018A0007E0B88F09F5798F0B92F9927B751B0F069
:1018B000E1F0660F771F881F991F1AF0BA95C9F7D4
:1018C00014C0B13091F00E94980BB1E008950C94CF
:1018D000980B672F782F8827B85F39F0B93FCCF382
:1018E000869577956795B395D9F73EF49095809551
:1018F000709561957F4F8F4F9F4F0895A1E21A2EEB
:10190000AA1BBB1BFD010DC0AA1FBB1FEE1FFF1FA3
:10191000A217B307E407F50720F0A21BB30BE40BF3
:10192000F50B661F771F881F991F1A9469F760953A
:101930007095809590959B01AC01BD01CF010895F4
:10194000EE0FFF1F0590F491E02D09940F931F9364
:10195000CF93DF938230910510F482E090E0E09124
:10196000ED02F091EE0230E020E0B0E0A0E0309730
:1019700099F42115310509F44AC0281B390B24308C
:101980003105D8F58A819B816115710589F1FB01CB
:1019900093838283FE0111C04081518102811381B2
:1019A00048175907E0F04817590799F4109761F064
:1019B00012960C93129713961C933296CF01DF91D7
:1019C000CF911F910F9108950093ED021093EE02B5
:1019D000F4CF2115310551F04217530738F0A90112
:1019E000DB019A01BD01DF01F801C1CFEF01F9CFA1
:1019F0009093EE028093ED02CDCFFE01E20FF31F34
:101A0000819391932250310939832883D7CF209134
:101A1000EB023091EC02232B41F420910201309132
:101A200003013093EC022093EB02209100013091EE
:101A300001012115310541F42DB73EB74091040154
:101A400050910501241B350BE091EB02F091EC0263
:101A5000E217F307A0F42E1B3F0B2817390778F085
:101A6000AC014E5F5F4F2417350748F04E0F5F1FE4
:101A70005093EC024093EB02819391939FCFF0E05F
:101A8000E0E09CCFCF93DF930097E9F0FC01329721
:101A900013821282A091ED02B091EE02ED0130E0CE
:101AA00020E01097A1F420813181820F931F2091B3
:101AB000EB023091EC022817390709F061C0F0936E
:101AC000EC02E093EB02DF91CF910895EA01CE178B
:101AD000DF07E8F54A815B819E0141155105B1F7A9
:101AE000E901FB83EA8349915991C40FD51FEC1793
:101AF000FD0761F4808191810296840F951FE901B1
:101B000099838883828193819B838A83F0E0E0E0DC
:101B100012968D919C9113970097B9F52D913C9158
:101B20001197CD010296820F931F2091EB02309105
:101B3000EC022817390739F6309751F51092EE026A
:101B40001092ED02B093EC02A093EB02BCCFD383D2
:101B5000C28340815181840F951FC817D90761F452
:101B60004E5F5F4F88819981480F591F5183408391
:101B70008A819B81938382832115310509F0B0CF3F
:101B8000F093EE02E093ED029ECFFD01DC01C0CFA9
:101B900013821282D7CFB0E0A0E0E1EDFDE00C941B
:101BA000A10B8C01009751F4CB010E94A60C8C0173
:101BB000C801CDB7DEB7E0E10C94BD0BFC01E60F28
:101BC000F71F9C0122503109E217F30708F49DC06A
:101BD000D901CD91DC911197C617D70798F0C53080
:101BE000D10530F3CE0104978617970708F3C61B7B
:101BF000D70B2297C193D1936D937C93CF010E9411
:101C0000420DD6CF5B01AC1ABD0A4C018C0E9D1E55
:101C1000A091ED02B091EE02512C412CF12CE12C5F
:101C2000109731F58091EB029091EC02881599059F
:101C300009F05CC04616570608F058C080910001B4
:101C400090910101009741F48DB79EB74091040136
:101C500050910501841B950BE817F90708F055C052
:101C6000F093EC02E093EB02F90171836083A0CF63
:101C70008D919C91119712966C90129713967C906F
:101C80001397A815B90559F56C0142E0C40ED11C93
:101C9000CA14DB0420F1AC014A195B09DA0112967F
:101CA000159780F06282738251834083D9016D93CE
:101CB0007C93E114F10471F0D7011396FC93EE9339
:101CC000129776CF22968C0F9D1FF9019183808306
:101CD000F301EFCFF093EE02E093ED0269CF4816E7
:101CE000590608F42C017D01D3019ACFCB010E9443
:101CF000A60C7C01009749F0AE01B8010E94880E45
:101D0000C8010E94420D870153CF10E000E050CF80
:101D1000FB01DC0102C001900D9241505040D8F708
:101D20000895FC018191861721F08823D9F799271E
:101D300008953197CF010895FB01DC0101900D92C8
:101D40000020E1F7089510E0CDE5D0E004C0FE01E9
:101D50000E94A00C2196CE35D107C9F7F894FFCF89
:101D60000000EF02800000004000140054004142D7
:101D700043440200030004000B00050006000700B6
:101D80000C00401F983A983A401F00000000ED01F7
:101D90004D017A013A02AB0189019D01000000006A
:101DA0001703EA022D04C002E302D002C1020000C0
:0C1DB000000060044D012D044C010000F7
:00000001FF
