:020000040000FA
:100000000C945E000C9486000C9486000C94860080
:100010000C9486000C9486000C9486000C94860048
:100020000C9486000C9486000C9486000C94860038
:100030000C9486000C9486000C9486000C94860028
:100040000C949F050C9486000C940F060C94E90503
:100050000C9486000C9486000C9486000C94860008
:100060000C9441060C948600000000080002010078
:100070000003040700000000000000000000000072
:10008000250028002B0000000000240027002A0083
:10009000040404040404040402020202020203032E
:1000A0000303030301020408102040800102040836
:1000B00010200102040810206007EE0A11241FBE60
:1000C000CFEFD8E0DEBFCDBF22E0ACE6B1E001C0AB
:1000D0001D92AF3EB207E1F711E0A0E0B1E0EAE91E
:1000E000FDE102C005900D92AC36B107D9F710E0E2
:1000F000CDE5D0E004C02197FE010E94BD0CCC35B7
:10010000D107C9F70E94B6070C94C00E0C940000EA
:1001100090E0FC01EC55FF4F249180579F4FFC016C
:100120008491882399F090E0880F991FFC01EA5789
:10013000FF4FA591B491FC01E458FF4F8591949134
:100140008FB7F894EC91E22BEC938FBF089590E079
:10015000FC01E859FF4F2491FC01EC55FF4F34910D
:10016000FC01E057FF4FE491EE23C9F0222339F060
:10017000233001F1A8F4213019F1223029F1F0E007
:10018000EE0FFF1FE458FF4FA591B4918FB7F8947D
:10019000EC91611126C030953E233C938FBF0895AA
:1001A0002730A9F02830C9F0243049F78091800029
:1001B0008F7D03C0809180008F7780938000DFCF98
:1001C00084B58F7784BDDBCF84B58F7DFBCF8091E5
:1001D000B0008F778093B000D2CF8091B0008F7D38
:1001E000F9CF3E2BDACF3FB7F89480912C02909153
:1001F0002D02A0912E02B0912F0226B5A89B05C01A
:100200002F3F19F00196A11DB11D3FBFBA2FA92F95
:10021000982F8827BC01CD01620F711D811D911D92
:1002200042E0660F771F881F991F4A95D1F70895FE
:100230008F929F92AF92BF92CF92DF92EF92FF92F6
:100240004B015C010E94F3006B017C010E94F300F2
:100250006C197D098E099F09683E734081059105DF
:10026000A8F321E0821A9108A108B10888EEC80E0F
:1002700083E0D81EE11CF11C81149104A104B10497
:1002800029F7FF90EF90DF90CF90BF90AF909F90B5
:100290008F900895089508950895AF92BF92CF92D8
:1002A000DF92EF92FF920F931F93CF93DF936C0136
:1002B0007B018B01040F151FEB015E01AE18BF0817
:1002C000C017D10759F06991D601ED91FC910190C9
:1002D000F081E02DC6010995892B79F7C501DF91E1
:1002E000CF911F910F91FF90EF90DF90CF90BF9033
:1002F000AF900895FC01538D448D252F30E0842F5D
:1003000090E0821B930B541710F0CF96089501973D
:100310000895FC01918D828D981761F0A28DAE0F2A
:10032000BF2FB11D5D968C91928D9F5F9F73928FB1
:1003300090E008958FEF9FEF0895FC01918D828DDD
:10034000981731F0828DE80FF11D858D90E00895AA
:100350008FEF9FEF0895FC01918D228D892F90E002
:10036000805C9F4F821B91098F739927089580E3CA
:1003700092E00E94AB0121E0892B09F420E0822F5A
:10038000089580E090E0892B29F00E94B701811147
:100390000C9400000895FC01A48DA80FB92FB11D85
:1003A000A35ABF4F2C91848D90E001968F739927AB
:1003B000848FA689B7892C93A089B1898C91837089
:1003C00080648C93938D848D981306C00288F38982
:1003D000E02D80818F7D80830895EF92FF920F93AF
:1003E0001F93CF93DF93EC0181E0888F9B8D8C8DE1
:1003F00098131AC0E889F989808185FF15C09FB7D5
:10040000F894EE89FF896083E889F9898081837097
:10041000806480839FBF81E090E0DF91CF911F9146
:100420000F91FF90EF900895F62E0B8D10E00F5F67
:100430001F4F0F731127E02E8C8D8E110CC00FB63D
:1004400007FCFACFE889F989808185FFF5CFCE01D5
:100450000E94CB01F1CFEB8DEC0FFD2FF11DE35A84
:10046000FF4FF0829FB7F8940B8FEA89FB89808158
:100470008062CFCFCF93DF93EC01888D8823B9F0D2
:10048000AA89BB89E889F9898C9185FD03C080819F
:1004900086FD0DC00FB607FCF7CF8C9185FFF2CF1C
:1004A000808185FFEDCFCE010E94CB01E9CFDF91A6
:1004B000CF9108952091D401260F3327331F213285
:1004C0003105ECF42091F801FC0190E080E024304B
:1004D00069F082E00895A091D4012191AC014C54BF
:1004E0005E4FA40FB52FB11D2C930196861798F37C
:1004F0008091D401680F6093D40180E0089581E079
:1005000008951092F80181E08093FA011092F901A8
:1005100061E082E10E94A70061E083E10E94A70000
:10052000E9EBF0E080818E7F808380818D7F808306
:1005300088E48093B80085E48093BC000895CF934D
:10054000DF9391E09093B3018823B9F0C091B80094
:10055000D091BA008091BC008A7B8093BC0060E09F
:1005600082E10E94A70060E083E10E94A7000E9450
:100570008102D093BA00C093B800DF91CF91089563
:100580000895E091250280912402E81730F4F0E00C
:10059000E257FE4F808190E008958FEF9FEF08951E
:1005A00090912502809124022FEF3FEF981748F495
:1005B000E92FF0E0E257FE4F208130E09F5F9093FB
:1005C0002502C90108958091240290912502891B7A
:1005D000990B0895CF92DF92EF92FF920F931F93A2
:1005E000CF93DF937C01CB018A0120918D012223DF
:1005F00089F0EB016B01C40ED51ECC15DD0569F049
:100600006991D701ED91FC910190F081E02DC70136
:100610000995F3CF642F0E945A02C801DF91CF9150
:100620001F910F91FF90EF90DF90CF900895CF939F
:10063000DF931F92CDB7DEB7698320918D0122230E
:10064000F9F020912202203258F021E030E0FC0144
:100650003383228390E080E00F90DF91CF91089563
:1006600080912302E82FF0E0E359FE4F99819083B7
:100670008F5F809323028093220281E090E0ECCF91
:1006800061E0CE0101960E945A02F7CFCF92DF922D
:10069000EF92FF920F931F93CF93DF93FC01C481DE
:1006A00021E020938D01C0936C01109223021092DF
:1006B00022028385682B8DEC92E00E941703D09173
:1006C0002202D13208F092C00E94F3006B017C013B
:1006D0008091F801811165C082E08093F80181E08A
:1006E0008093FA018FEF8093F70110921C02D09350
:1006F0001B02ADE6B1E0EBEFF1E080E0D81385C07E
:1007000010921D0280911D02CC0FC82BC0931D02B8
:100710008091F901813009F07CC01092F9010E94AA
:10072000F3006B017C0180911D028093BB008091DE
:10073000AF019091B001A091B101B091B201892BAC
:100740008A2B8B2B99F00E94F3000091AF0110913E
:10075000B0012091B1013091B2016C197D098E096F
:100760009F090617170728073907E0F18091BC0099
:1007700083FDD9CF85EC8093BC000E94F3006B0110
:100780007C018091F801823009F445C08091F70125
:100790008F3F61F18091F701803241F18091F70143
:1007A00025C08091AF019091B001A091B101B091AD
:1007B000B201892B8A2B8B2B09F48ACF0E94F3007C
:1007C0000091AF011091B0012091B1013091B201BF
:1007D0006C197D098E099F09061717072807390725
:1007E00008F076CF8091AE010E949F021092230202
:1007F0001092220210928D01DF91CF911F910F91E3
:10080000FF90EF90DF90CF9008959D9191938F5F2F
:1008100075CF85EEB0CF8091AF019091B001A091DE
:10082000B101B091B201892B8A2B8B2B09F4A9CF8E
:100830000E94F3000091AF011091B0012091B1012D
:100840003091B2016C197D098E099F0906171707AF
:100850002807390708F095CFC5CF90E080E00895CC
:100860000F931F93CF938C01C62F0E9446036C2FCA
:100870006460C8010E9446036C2F6B7FC8010E9410
:10088000460383EC90E00197F1F7CF911F910F9110
:1008900008950F931F93CF93DF938C01D62FC42F0E
:1008A000607F642B0E94300480E1D89FB001112446
:1008B0006C2BC801DF91CF911F910F910C943004E4
:1008C00041E00E94490481E090E00895CF93DF93D6
:1008D000CDB7DEB728970FB6F894DEBF0FBECDBFF9
:1008E00098E0E6E1F1E0DE01119601900D929A9513
:1008F000E1F79091E702961708F46FEF262F30E0AA
:10090000220F331F41E050E04C0F5D1F240F351FB5
:10091000F9016081680F606840E08FED92E02896F1
:100920000FB6F894DEBF0FBECDBFDF91CF910C9410
:1009300049048F929F92AF92BF920F931F93CF93D0
:10094000DF93CDB7DEB7A1970FB6F894DEBF0FBE29
:10095000CDBF19A2423008F44AE08E010F5D1F4F4F
:10096000842E912CB12CA12CA50194010E949B0CEA
:10097000E62FB901CA01EA3044F5E05DD801EE93F3
:100980008D01232B242B252B79F790E080E0109705
:1009900069F0FD0101900020E9F73197AF014A1B92
:1009A0005B0BBD018FED92E00E944D01A1960FB649
:1009B000F894DEBF0FBECDBFDF91CF911F910F9195
:1009C000BF90AF909F908F900895E95CD7CFCF9262
:1009D000DF92EF92FF9297FF18C06B017C0141E01C
:1009E0006DE28FED92E00E94490466277727CB01E4
:1009F0006C197D098E099F094AE00E9499040196AD
:100A0000FF90EF90DF90CF9008954AE0FF90EF9035
:100A1000DF90CF900C949904FC0180819181009724
:100A200011F00C945F0D08950F931F93CF93DF93F4
:100A3000EC0188819981009759F02A813B81261722
:100A4000370730F081E0DF91CF911F910F9108952A
:100A50008B016F5F7F4F0E94E80D009759F09983DB
:100A600088831B830A832C813D81232B59F7FC014A
:100A70001082E8CF80E0E7CFEF92FF920F931F93B1
:100A8000CF93DF93EC017B018A01BA010E94140528
:100A900028813981811114C02115310519F0C9014E
:100AA0000E945F0D198218821D821C821B821A828D
:100AB000CE01DF91CF911F910F91FF90EF9008959C
:100AC0001D830C83B701C9010E94B90EF1CF85EDDA
:100AD0008093BC008091AF019091B001A091B101D1
:100AE000B091B2010796A11DB11D23E0B695A7955F
:100AF000979587952A95D1F72091BC0024FD03C0D6
:100B00001092F80108954091AF015091B0016091A9
:100B1000B1017091B201452B462B472B69F3009729
:100B2000A105B10541F02AE22A95F1F700C001972D
:100B3000A109B109E1CF8091AE010C949F021F92EF
:100B40000F920FB60F9211242F933F938F939F9381
:100B5000AF93BF938091280290912902A0912A021D
:100B6000B0912B023091270223E0230F2D3758F547
:100B70000196A11DB11D2093270280932802909316
:100B80002902A0932A02B0932B0280912C0290910B
:100B90002D02A0912E02B0912F020196A11DB11D30
:100BA00080932C0290932D02A0932E02B0932F02DB
:100BB000BF91AF919F918F913F912F910F900FBE59
:100BC0000F901F90189526E8230F0296A11DB11DC6
:100BD000D2CF1F920F920FB60F9211242F933F93F3
:100BE0004F935F936F937F938F939F93AF93BF9335
:100BF000EF93FF9380E392E00E94CB01FF91EF918E
:100C0000BF91AF919F918F917F916F915F914F9124
:100C10003F912F910F900FBE0F901F9018951F922C
:100C20000F920FB60F9211242F938F939F93EF93F0
:100C3000FF93E0914002F09141028081E0914602F1
:100C4000F091470282FD1BC09081809149028F5F25
:100C50008F7320914A02821741F0E0914902F0E03F
:100C6000E05DFD4F958F80934902FF91EF919F9139
:100C70008F912F910F900FBE0F901F90189580812C
:100C8000F4CF1F920F920FB60F9211242F933F9320
:100C90004F935F936F937F938F939F93AF93BF9384
:100CA000EF93FF938091B900887F803609F44AC0A2
:100CB000F0F5883209F4A7C018F5803109F49BC01B
:100CC000B8F4882309F4F9C0883009F494C0FF917E
:100CD000EF91BF91AF919F918F917F916F915F91B4
:100CE0004F913F912F910F900FBE0F901F9018952D
:100CF000883109F488C0803251F78093F70114C01D
:100D0000803409F49DC040F48033B9F38833F9F698
:100D10008093F70185ECB0C0803509F485C0883533
:100D200009F496C0883499F60E946705D0CF8839B7
:100D300009F48CC038F5883729F050F4883611F062
:100D4000803729F683E08093F8011092F60157C0AE
:100D5000883809F47BC0803919F0803809F0B7CFA2
:100D60008091F601803208F071C0E091F60181E0D7
:100D70008E0F8093F6018091BB00F0E0EA52FE4FA7
:100D800080833DC0803B39F0E0F4803A09F479C0BB
:100D9000883A09F09CCF84E08093F8011092D50145
:100DA0001092D401E0912002F091210209958091E6
:100DB000D40181110FC081E08093D4011092B4015D
:100DC00009C0803C09F4A6CF883C09F4A3CF883B36
:100DD00009F07DCFE091D50181E08E0F8093D501A0
:100DE000F0E0EC54FE4F80818093BB009091D501E0
:100DF0008091D40129C080911D028093BB0085ECB5
:100E00008093BC0064CF90911C0280911B029817C4
:100E100058F5E0911C0281E08E0F80931C02F0E0F7
:100E2000E550FE4F8081E9CFE0911C0281E08E0FFA
:100E300080931C028091BB00F0E0E550FE4F808360
:100E400090911C0280911B029817C8F285E8D8CFB8
:100E5000E0911C0281E08E0F80931C028091BB0008
:100E6000F0E0E550FE4F80838091FA0181115CCF64
:100E700081E08093F90184EA8093BC001092F8012C
:100E800026CF85EC8093BC001092F8018091F6018A
:100E9000803230F4E091F601F0E0EA52FE4F108229
:100EA0006091F60170E0E0911E02F0911F0286ED64
:100EB00091E009951092F6010ACF1092F70134CF14
:100EC000E0E3F2E01382128288EE93E0A0E0B0E06B
:100ED00084839583A683B7832EE331E03183208317
:100EE00025EC30E03587248724EC30E037872687EF
:100EF00020EC30E0318B208B21EC30E0338B228BE7
:100F000022EC30E0358B248B26EC30E0378B268BBF
:100F1000118E128E138E148EEDECF2E0138212827B
:100F200084839583A683B78380E591E09183808352
:100F3000EFEDF2E01382128282E691E091838083EA
:100F400087E2848380E1818782E082871386E9EDEE
:100F5000F2E011821082138212821582148250E014
:100F600040E06AE671E0CF010C943C05CF93DF933B
:100F7000CDB7DEB769970FB6F894DEBF0FBECDBF11
:100F8000789484B5826084BD84B5816084BD85B564
:100F9000826085BD85B5816085BD80916E00816070
:100FA00080936E0010928100809181008260809316
:100FB0008100809181008160809381008091800018
:100FC0008160809380008091B10084608093B10043
:100FD0008091B00081608093B00080917A0084603D
:100FE00080937A0080917A00826080937A00809169
:100FF0007A00816080937A0080917A008068809383
:101000007A001092C100E0914002F091410282E02A
:101010008083E0913C02F0913D021082E0913E021B
:10102000F0913F028FEC808310924802E0914402DD
:10103000F091450286E08083E0914202F091430204
:10104000808180618083E0914202F091430280813F
:1010500088608083E0914202F09143028081806841
:101060008083E0914202F091430280818F7D8083F2
:101070001092250210922402109223021092220252
:101080000E9481028AE491E09093210280932002E1
:101090008BE491E090931F0280931E021092E40271
:1010A0008091E902823018F098E09093E4028093F6
:1010B000E70262E370E080E090E00E941801609136
:1010C000EA028FED92E00E94460368EE73E080E052
:1010D00090E00E94180160E38FED92E00E943004DE
:1010E0000BE416E4C8010197F1F760E38FED92E09D
:1010F0000E943004C8010197F1F760E38FED92E0A0
:101100000E94300483E592E00197F1F760E28FEDF1
:1011100092E00E9430046091E402606240E08FED52
:1011200092E00E94490484E08093E50240E06CE094
:101130008FED92E00E94490440E061E08FED92E083
:101140000E9449040BE31FE1C8010197F1F782E017
:101150008093E60240E066E08FED92E00E94490451
:1011600040E062E08FED92E00E944904C8010197DF
:10117000F1F788E08093EA0260E08FED92E00E9450
:10118000460388E00E94880082E00E94880085E093
:101190000E94880083E00E94880086E00E94880008
:1011A00084E00E94880087E00E9488008BE00E9413
:1011B00088008CE00E94880060E088E00E94A70020
:1011C00022242A94322C80E392E00E94AB0118166C
:1011D00019065CF580E392E00E9489018093260263
:1011E0008A3019F189831A820091DD021091DE02A2
:1011F0000F5F1F4FB80189ED92E00E94140588230C
:1012000011F32091D9023091DA028091DD029091A0
:10121000DE02BE016F5F7F4F820F931F0E94B90EE7
:101220001093DE020093DD02CECF809126028A3039
:1012300009F043C0188A1F861A8A198A1C8A1B8AD9
:1012400050E040E06AE671E0CE010F960E943C0556
:101250003EE1432E31E0532ECE0101965C0148E081
:10126000642E41E0742E912C812CF20161912F01AA
:101270008091DD029091DE02892B09F095C0F50185
:1012800031822082FFEF8F1A9F0A22E0A20EB11C4A
:1012900082E0680E711C94E08916910431F7CE014A
:1012A0000F960E940C051092260250E040E06AE67C
:1012B00071E089ED92E00E943C05E8E0F1E0F88FF2
:1012C000EF8B20E0422E21E0522E10E000E0EF896B
:1012D000F88DC190D190F88FEF8BF20181919191AF
:1012E0002F01C816D90609F416C1F801EE5CFE4FAD
:1012F00080809180F801EE5DFE4F2081298FB6013C
:10130000681B790B94E0660F771F9A95E1F7072E1B
:10131000000C880B990B0E94300B26E636E646EE51
:101320005FE30E94F30B0E94650C7B0161E01E14D9
:101330001F040CF460E0F801E65DFE4F80810E941E
:10134000A7003401660C771C660C771C85E0681AD0
:101350007108B12CA12CEE27FF27EE19FF09FE8B97
:10136000ED8BC701F7FE02C08D899E89A816B906CC
:101370000CF0CDC061E0898D0E94A700F2E08F16CD
:10138000910418F0C3010197F1F760E0898D0E9484
:10139000A70022E08216910418F0C3010197F1F72B
:1013A0008FEFA81AB80ADDCFE090D902F090DA02E8
:1013B000062E000C770BC7010E94AE0E009709F4B1
:1013C0005ECF8C010E191F09F5011183008317FDF3
:1013D00059CFF12CE12C8114910451F03297E08027
:1013E000F180FFEFEF1AFF0A0E151F0508F465C024
:1013F0001A8619861C861B861E861D8650E040E0D4
:101400006AE671E0CE0109960E943C05C090DD02BB
:10141000D090DE02EC14FD0450F50C151D0508F407
:101420006801E091D902F091DA02EC0DFD1D108106
:1014300010826091D9027091DA026E0D7F1D6115E4
:10144000710509F440C0FB0101900020E9F73197D4
:10145000AF01461B570BCE0109960E943C058091B7
:10146000D9029091DA02C80ED91EF60110838F8539
:1014700098890097B9F169857A856115710581F1BF
:1014800049895A892D853E854217530748F10E94A4
:10149000B90E8D859E859C8B8B8B1E861D86CE01FD
:1014A00009960E940C058F859889009761F10E942A
:1014B000F20AF30171836083E5CE9E2D8F2D7801B2
:1014C000092F182F95CF89859A85009711F00E94D2
:1014D0005F0D1A8619861E861D861C861B86BFCF49
:1014E0000E945F0D89859A85988B8F878B859C8557
:1014F0009A8B898B8D859E859C8B8B8B1A86198602
:101500001C861B86CACF60E070E0CB01D2CFF2010F
:101510003297D182C0820E5F1F4F0830110509F04B
:10152000D6CE60E082E00E9466046091080170916E
:1015300009018091000190910101681B790B072E30
:10154000000C880B990B0E94E70460E087E00E9482
:10155000660460910A0170910B01809102019091E3
:101560000301681B790B072E000C880B990B0E9456
:10157000E70461E082E00E94660460910C017091D2
:101580000D018091040190910501681B790B072ED4
:10159000000C880B990B0E94E70461E087E00E9431
:1015A000660460910E0170910F0180910601909187
:1015B0000701681B790B072E000C880B990B0E9402
:1015C000E704E0E0F0E0EF2B09F4FDCD0E94B70165
:1015D000882309F4F8CD0E940000F5CD89ED92E052
:1015E0000C940C051F93FC0199278827BC01E894F3
:1015F00011911032E9F3193010F01E30C8F31B328C
:1016000051F01D3249F4689406C00E94190B610F15
:10161000711D811D911D119110531A30B0F33EF4CC
:1016200090958095709561957F4F8F4F9F4F1F913B
:101630000895592F482F372F262F660F771F881FA1
:10164000991F660F771F881F991F620F731F841FD2
:10165000951F660F771F881F991F0895E89409C08A
:1016600097FB3EF490958095709561957F4F8F4FD5
:101670009F4F9923A9F0F92F96E9BB279395F695EB
:10168000879577956795B795F111F8CFFAF4BB0F69
:1016900011F460FF1BC06F5F7F4F8F4F9F4F16C0CD
:1016A000882311F096E911C0772321F09EE8872F57
:1016B000762F05C0662371F096E8862F70E060E013
:1016C0002AF09A95660F771F881FDAF7880F96958C
:1016D000879597F9089597F99F6780E870E060E033
:1016E00008959FEF80EC089500240A9416161706BB
:1016F00018060906089500240A9412161306140603
:1017000005060895092E0394000C11F4882352F065
:10171000BB0F40F4BF2B11F460FF04C06F5F7F4F1D
:101720008F4F9F4F089557FD9058440F551F59F004
:101730005F3F71F04795880F97FB991F61F09F3FBE
:1017400079F087950895121613061406551FF2CFE7
:101750004695F1DF08C0161617061806991FF1CF37
:1017600086957105610508940895E894BB2766275E
:101770007727CB0197F908952F923F924F925F926E
:101780006F927F928F929F92AF92BF92CF92DF9291
:10179000EF92FF920F931F93CF93DF93CDB7DEB7F6
:1017A000CA1BDB0B0FB6F894DEBF0FBECDBF09948A
:1017B0002A88398848885F846E847D848C849B84E1
:1017C000AA84B984C884DF80EE80FD800C811B81EF
:1017D000AA81B981CE0FD11D0FB6F894DEBF0FBE1E
:1017E000CDBFED0108950E94070C0C94820B0E945E
:1017F0007B0B58F00E94740B40F029F45F3F29F0F6
:101800000C946B0B51110C94B60B0C94710B0E9441
:10181000930B68F39923B1F3552391F3951B550B63
:10182000BB27AA2762177307840738F09F5F5F4FB3
:10183000220F331F441FAA1FA9F335D00E2E3AF0F2
:10184000E0E832D091505040E695001CCAF72BD00A
:10185000FE2F29D0660F771F881FBB1F261737075B
:101860004807AB07B0E809F0BB0B802DBF01FF278D
:1018700093585F4F3AF09E3F510578F00C946B0BF4
:101880000C94B60B5F3FE4F3983ED4F386957795BE
:101890006795B795F7959F5FC9F7880F911D969546
:1018A000879597F90895E1E0660F771F881FBB1FA2
:1018B000621773078407BA0720F0621B730B840B4F
:1018C000BA0BEE1F88F7E09508950E946C0C68949F
:1018D000B1110C94B60B08950E949B0B88F09F5792
:1018E00098F0B92F9927B751B0F0E1F0660F771F44
:1018F000881F991F1AF0BA95C9F714C0B13091F03A
:101900000E94B50BB1E008950C94B50B672F782FAA
:101910008827B85F39F0B93FCCF3869577956795FE
:10192000B395D9F73EF490958095709561957F4F6A
:101930008F4F9F4F0895A1E21A2EAA1BBB1BFD01DA
:101940000DC0AA1FBB1FEE1FFF1FA217B307E4079E
:10195000F50720F0A21BB30BE40BF50B661F771FF6
:10196000881F991F1A9469F76095709580959095D6
:101970009B01AC01BD01CF010895EE0FFF1F059043
:10198000F491E02D09940F931F93CF93DF9382304E
:10199000910510F482E090E0E091ED02F091EE020A
:1019A00030E020E0B0E0A0E0309799F42115310557
:1019B00009F44AC0281B390B24303105D8F58A8137
:1019C0009B816115710589F1FB0193838283FE017F
:1019D00011C0408151810281138148175907E0F0FD
:1019E0004817590799F4109761F012960C931297C3
:1019F00013961C933296CF01DF91CF911F910F91D7
:101A000008950093ED021093EE02F4CF21153105F5
:101A100051F04217530738F0A901DB019A01BD01CB
:101A2000DF01F801C1CFEF01F9CF9093EE0280936F
:101A3000ED02CDCFFE01E20FF31F8193919322506F
:101A4000310939832883D7CF2091EB023091EC0202
:101A5000232B41F420911201309113013093EC02B9
:101A60002093EB02209110013091110121153105D5
:101A700041F42DB73EB74091140150911501241B3C
:101A8000350BE091EB02F091EC02E217F307A0F4C2
:101A90002E1B3F0B2817390778F0AC014E5F5F4FC4
:101AA0002417350748F04E0F5F1F5093EC02409308
:101AB000EB02819391939FCFF0E0E0E09CCFCF9336
:101AC000DF930097E9F0FC01329713821282A09114
:101AD000ED02B091EE02ED0130E020E01097A1F4AC
:101AE00020813181820F931F2091EB023091EC0213
:101AF0002817390709F061C0F093EC02E093EB027C
:101B0000DF91CF910895EA01CE17DF07E8F54A810A
:101B10005B819E0141155105B1F7E901FB83EA8321
:101B200049915991C40FD51FEC17FD0761F48081CD
:101B300091810296840F951FE901998388838281A0
:101B400093819B838A83F0E0E0E012968D919C91D3
:101B500013970097B9F52D913C911197CD010296FD
:101B6000820F931F2091EB023091EC022817390766
:101B700039F6309751F51092EE021092ED02B093C3
:101B8000EC02A093EB02BCCFD383C283408151818E
:101B9000840F951FC817D90761F44E5F5F4F888186
:101BA0009981480F591F518340838A819B81938378
:101BB00082832115310509F0B0CFF093EE02E09356
:101BC000ED029ECFFD01DC01C0CF13821282D7CF80
:101BD000B0E0A0E0EEEEFDE00C94BE0B8C010097AF
:101BE00051F4CB010E94C30C8C01C801CDB7DEB704
:101BF000E0E10C94DA0BFC01E60FF71F9C01225088
:101C00003109E217F30708F49DC0D901CD91DC91A9
:101C10001197C617D70798F0C530D10530F3CE011C
:101C200004978617970708F3C61BD70B2297C19313
:101C3000D1936D937C93CF010E945F0DD6CF5B0152
:101C4000AC1ABD0A4C018C0E9D1EA091ED02B09104
:101C5000EE02512C412CF12CE12C109731F58091A2
:101C6000EB029091EC028815990509F05CC04616CC
:101C7000570608F058C0809110019091110100970B
:101C800041F48DB79EB74091140150911501841B0A
:101C9000950BE817F90708F055C0F093EC02E093B4
:101CA000EB02F90171836083A0CF8D919C91119714
:101CB00012966C90129713967C901397A815B905FD
:101CC00059F56C0142E0C40ED11CCA14DB0420F1AA
:101CD000AC014A195B09DA011296159780F062820D
:101CE000738251834083D9016D937C93E114F10495
:101CF00071F0D7011396FC93EE93129776CF22964C
:101D00008C0F9D1FF90191838083F301EFCFF09336
:101D1000EE02E093ED0269CF4816590608F42C0153
:101D20007D01D3019ACFCB010E94C30C7C010097A7
:101D300049F0AE01B8010E94A50EC8010E945F0DD6
:101D4000870153CF10E000E050CFFB01DC0102C05F
:101D500001900D9241505040D8F70895FC018191B7
:101D6000861721F08823D9F7992708953197CF0155
:101D70000895FB01DC0101900D920020E1F7089528
:101D800010E0CDE5D0E004C0FE010E94BD0C21961C
:101D9000CE35D107C9F7F894FFCF0000780078005E
:101DA000780000007800780078000000EF028000E2
:101DB000000040001400540041424344020003006C
:101DC00004000B000500060007000C00401F983AB5
:101DD000983A401F00000000ED014D017A013A02DF
:101DE000AB0189019D01000000001703EA022D04E8
:101DF000C002E302D002C1020000000060044D01F5
:061E00002D044C0100005E
:107E0000112484B714BE81FFF0D085E080938100F7
:107E100082E08093C00088E18093C10086E0809377
:107E2000C20080E18093C4008EE0C9D0259A86E02C
:107E300020E33CEF91E0309385002093840096BBD3
:107E4000B09BFECF1D9AA8958150A9F7CC24DD24C4
:107E500088248394B5E0AB2EA1E19A2EF3E0BF2EE7
:107E6000A2D0813461F49FD0082FAFD0023811F036
:107E7000013811F484E001C083E08DD089C08234E0
:107E800011F484E103C0853419F485E0A6D080C0E4
:107E9000853579F488D0E82EFF2485D0082F10E0AE
:107EA000102F00270E291F29000F111F8ED06801E7
:107EB0006FC0863521F484E090D080E0DECF843638
:107EC00009F040C070D06FD0082F6DD080E0C81688
:107ED00080E7D80618F4F601B7BEE895C0E0D1E017
:107EE00062D089930C17E1F7F0E0CF16F0E7DF06D8
:107EF00018F0F601B7BEE89568D007B600FCFDCFD4
:107F0000A601A0E0B1E02C9130E011968C91119780
:107F100090E0982F8827822B932B1296FA010C0160
:107F200087BEE89511244E5F5F4FF1E0A038BF0790
:107F300051F7F601A7BEE89507B600FCFDCF97BE46
:107F4000E89526C08437B1F42ED02DD0F82E2BD052
:107F50003CD0F601EF2C8F010F5F1F4F84911BD097
:107F6000EA94F801C1F70894C11CD11CFA94CF0C13
:107F7000D11C0EC0853739F428D08EE10CD085E9AC
:107F80000AD08FE07ACF813511F488E018D01DD067
:107F900080E101D065CF982F8091C00085FFFCCF94
:107FA0009093C60008958091C00087FFFCCF809118
:107FB000C00084FD01C0A8958091C6000895E0E648
:107FC000F0E098E1908380830895EDDF803219F02E
:107FD00088E0F5DFFFCF84E1DECF1F93182FE3DFCA
:107FE0001150E9F7F2DF1F91089580E0E8DFEE27F6
:047FF000FF270994CA
:027FFE00040479
:00000001FF
